:020000040800F2
:1000000068070020D5010008A90C0008C9050008F0
:10001000A50C0008AD040008EF1100080000000066
:10002000000000000000000000000000550E000865
:10003000B1040008000000001D0D0008690F000851
:10004000EF010008EF010008EF010008EF010008D0
:10005000EF010008EF010008EF010008EF010008C0
:10006000EF010008EF010008EF010008EF010008B0
:10007000EF010008EF010008EF010008EF010008A0
:10008000EF010008EF0100088D040008EF010008EF
:10009000EF010008EF010008EF010008EF01000880
:1000A000EF010008EF010008EF010008EF01000870
:1000B000EF010008EF010008EF010008EF01000860
:1000C000EF010008EF010008EF010008EF01000850
:1000D000EF010008CD0F0008EF010008EF01000854
:1000E000EF010008EF010008EF010008EF01000830
:1000F000EF010008EF010008EF010008EF01000820
:10010000EF010008EF010008EF010008EF0100080F
:10011000EF010008EF010008EF010008EF010008FF
:10012000EF010008EF010008EF010008EF010008EF
:1001300000F002F800F03FF80AA090E8000C8244BA
:100140008344AAF10107DA4501D100F034F8AFF297
:10015000090EBAE80F0013F0010F18BFFB1A43F0A5
:1001600001031847241A0000441A0000103A24BF63
:1001700078C878C1FAD8520724BF30C830C144BF0C
:1001800004680C607047000000230024002500264E
:10019000103A28BF78C1FBD8520728BF30C148BFEA
:1001A0000B607047642900F07780002070471FB50E
:1001B0001FBD10B510BD00F037F91146FFF7F7FF6E
:1001C00001F070F800F055F903B4FFF7F2FF03BC3B
:1001D00001F00FF80948804709480047FEE7FEE7AD
:1001E000FEE7FEE7FEE7FEE7FEE7FEE7FEE7FEE7E7
:1001F00004480549054A064B704700006D0F00088A
:100200003101000868010020680700206803002011
:1002100068030020704700000FB4044910B503AA1A
:10022000029800F0D3F810BC5DF814FB1800002011
:100230002DE9F0410E460446002020622046E16888
:10024000884730B3252805D0D4E901219047206A9A
:10025000401CF2E7E168204600278847050018D0D7
:10026000A5F14100192802D820354FF40067324625
:10027000294620462760FFF795FF40B1012804D0AA
:10028000F61D26F007060836D8E7361DD6E72846BD
:10029000DAE7206ABDE8F0812DE9F0410646002446
:1002A00010687529314616A510D0AFF300800028DC
:1002B00002DA404213A507E031688A0701D512A58A
:1002C00002E0490704D511A5012401E0AFF3008045
:1002D00000210A2206F1240709E0B0FBF2FCB0FB82
:1002E000F2F302FB1C00303078541846491C0028F9
:1002F000F3D123462A463046BDE8F04100F00CB861
:10030000000000002D0000002B0000002000000075
:1003100070477047704770472DE9F0470D46994682
:100320009246044600F124080168880604D5E06975
:1003300021F01001216000E00120A84201DD471BEF
:1003400000E00027A1697A1902EB0900081AA061F0
:100350002078C00602D42046AFF30080002608E0D3
:10036000D4E901211AF806009047206A401C761C47
:1003700020624E45F4DB2078C0060AD52046AFF354
:10038000008006E0D4E9012130209047206A401C1B
:100390002062381EA7F10107F4DC07E0D4E901214F
:1003A00018F805009047206A401C2062281EA5F11D
:1003B0000105F3DC2046AFF300802078000602D56B
:1003C0000220BDE8F0870120FBE70000074B70B575
:1003D0000D467B4400F011F80446284600F020F852
:1003E00010B14FF0FF3070BD204670BDB30E00005D
:1003F00001694A1C02610878704700B58FB0CDE9E9
:1004000001310021059105497944CDE903101146D8
:100410006846FFF70DFF0FB000BD0000E5FFFFFFCE
:10042000007B00F080007047754600F02BF8AE4668
:1004300005006946534620F00700854618B020B5F0
:10044000FFF7D6FEBDE820404FF000064FF0000752
:100450004FF000084FF0000B21F00701AC46ACE86C
:10046000C009ACE8C009ACE8C009ACE8C0098D46D9
:10047000704710B50446AFF300802046BDE8104039
:10048000FFF7A2BE004870470801002010B50348DE
:1004900000F008F80249088010BD00000028014063
:1004A0002A0000200146C86C80B2704700BFFEE7FA
:1004B00070472DE9F0410246002500260020002368
:1004C0000024002791F803C00CF00F0591F803C039
:1004D0000CF0100CBCF1000F03D091F802C04CEAF4
:1004E000050591F800C0BCF1000F31D01468002060
:1004F0002BE04FF0010C0CFA00F3B1F800C00CEA4D
:1005000003069E4220D183004FF00F0C0CFA03F734
:10051000BC4305FA03FC4CEA040491F803C0BCF1A7
:10052000280F06D14FF0010C0CFA00FCC2F814C0E1
:100530000AE091F803C0BCF1480F05D14FF0010C5F
:100540000CFA00FCC2F810C0401C0828D1D314607B
:10055000B1F800C0BCF1FF0F34DD546800202EE07C
:1005600000F1080C4FF0010808FA0CF3B1F800C0D4
:100570000CEA03069E4221D183004FF00F0C0CFAC7
:1005800003F7BC4305FA03FC4CEA040491F803C0EA
:10059000BCF1280F05D100F1080C08FA0CF8C2F8DC
:1005A000148091F803C0BCF1480F07D100F1080C8A
:1005B0004FF0010808FA0CF8C2F81080401C082817
:1005C000CED35460BDE8F08100BFFEE721B10288C0
:1005D00042F48062028004E002884FF6FF331A4042
:1005E0000280704770B502460024002500230020D9
:1005F000958A138B1B0445EA030626F07F4404EA20
:1006000001068E4201D1012000E0002070BD21B121
:10061000028842F00102028004E002884FF6FE7375
:100620001A4002807047000010B504460B4884420F
:1006300009D10121480500F083FB00214FF400108F
:1006400000F07EFB08E00121880500F079FB002125
:100650004FF4800000F074FB10BD00000054004017
:1006600021B1028842F48072028004E002884FF6D1
:10067000FF631A400280704721B1028842F4007281
:10068000028004E002884FF6FF531A400280704750
:100690000CB50246002000230193009300920B0F3B
:1006A000019321F07F41019B1BB1009B1433009308
:1006B00003E0090C009B18330093009B1B680B4060
:1006C0000BB1012000E000200CBD00002DE9F0433B
:1006D00085B004460D460026B1460427DFF8CC80DD
:1006E000A6884FF6C0700640684600F049FBDDF86A
:1006F00008802F48B8FBF0F01FFA80F946EA090697
:10070000A68020884FF6FE710840208000262949E7
:10071000286888420CD828684000B8FBF0F087B2FF
:10072000042F00DA04273E4309F10100208427E06A
:10073000E8884BF6FF71884206D1286800EB40003C
:10074000B8FBF0F087B209E0286800EBC00101EBCC
:100750000010B8FBF0F087B247F48047C7F30B00F6
:1007600008B947F0010747F4004006434FF496707C
:1007700009FB00F04FF47A7190FBF1F0401C2084EB
:10078000A683208840F00100208026884FF6F530AF
:100790000640A8886989084306432680A8892989D4
:1007A0000843208105B0BDE8F083000000127A0004
:1007B00040420F00A08601000146088AC0B270477F
:1007C00012B141F0010102E04FF6FE7319400182BF
:1007D0007047018270472DE9FC4104460D461646DC
:1007E0006B4606223B21D02000F056F90746BFB9E0
:1007F0009DF801009DF8001040EA012000B2208021
:100800009DF803009DF8021040EA012000B2288004
:100810009DF805009DF8041040EA012000B23080E8
:100820003846BDE8FC812DE9FC4104460D461646DC
:100830006B4606224321D02000F02EF90746BFB9AF
:100840009DF801009DF8001040EA012000B22080D0
:100850009DF803009DF8021040EA012000B22880B4
:100860009DF805009DF8041040EA012000B2308098
:100870003846BDE8FC8100002DE9F84F6B460222A6
:100880004121D02000F008F99DF801009DF80010EA
:1008900040EA01200FFA80FA504600F0B9FF804686
:1008A0000022094B00F05CFE0646084A084B00F0A7
:1008B000AFFD044600F07AFD8346584601F0FEF88D
:1008C00000B2BDE8F88F000000407540A4703D0AFA
:1008D000D743424010B586B00121880500F020FAC8
:1008E0000121082000F03CFA1C208DF817004FF47D
:1008F0004060ADF8140003208DF8160005A92E48BD
:10090000FFF7D7FD2D48FFF78FFE0020ADF8080058
:100910004BF6FF70ADF80A000020ADF80C004FF464
:100920008060ADF80E000001ADF810002448019081
:1009300001212248FFF76BFE01A92048FFF7C6FE00
:1009400080216B2000F068F90A2000F077FC00217C
:100950006B2000F061F9032000F01CF9002000F08A
:1009600011F9322000F03BF90021382000F054F951
:1009700000216A2000F050F90021232000F04CF9FA
:100980008021372000F048F9752000F01BF804465C
:10099000D02C0BD101216B2000F03EF900216C20FE
:1009A00000F03AF9322000F01AF902E0012006B016
:1009B00010BD0020FBE70000000C01400058004083
:1009C000801A060070B50446002500BF4FF40031C0
:1009D0002E48FFF75DFE0028F8D101212B48FFF7D4
:1009E0003FFE00BF2A492948FFF7FCFD0128F9D145
:1009F0000022D0212548FFF7E3FE00BF2549234808
:100A0000FFF7F0FD0128F9D101212048FFF7FFFD94
:100A100021461E48FFF7DDFE00BF1E49891E1B4808
:100A2000FFF7E0FD0128F8D101211848FFF718FE73
:100A300000BF17491548FFF7D5FD0128F9D101225C
:100A4000D0211248FFF7BCFE00BF1149491C0F48D6
:100A5000FFF7C8FD0128F8D100210C48FFF7B6FDCB
:100A600000BF0B493F310948FFF7BCFD0128F8D111
:100A70000648FFF7A1FE054601210448FFF7FCFDEB
:100A800001210248FFF7A2FD284670BD0058004032
:100A900001000300820007002DE9F04107460E46E1
:100AA00014461D4600BF4FF400313348FFF7F0FDF8
:100AB0000028F8D101213048FFF7D2FD00BF2F49AF
:100AC0002D48FFF78FFD0128F9D10022D0212A48B7
:100AD000FFF776FE00BF2A492748FFF783FD01286C
:100AE000F9D101212448FFF792FD31462248FFF752
:100AF00070FE00BF2249891C1F48FFF773FD0128C3
:100B0000F8D101211C48FFF7ABFD00BF1B491A4873
:100B1000FFF768FD0128F9D10122D0211648FFF71F
:100B20004FFE00BF1549491C1348FFF75BFD012824
:100B3000F8D118E0012C07D100210F48FFF746FD3E
:100B400001210D48FFF798FD00BF0C493F310A48CD
:100B5000FFF748FD0128F8D10748FFF72DFE287060
:100B60006D1C601EC4B2002CE4D101210248FFF7C5
:100B70002DFD0020BDE8F081005800400100030079
:100B80008200070010B50446E006010E1C2000F0AC
:100B900043F810BD10B50446E006010E1B2000F01E
:100BA0003BF810BD70B504460025BC2C01DB0125C7
:100BB00010E0622C01DB02250CE02A2C01DB03256E
:100BC00008E0142C01DB042504E00A2C01DB0525D8
:100BD00000E0062529461A2000F01EF870BD70B509
:100BE0000446B4F57A7F01DD4FF47A74042C00DA00
:100BF00004244FF47A7090FBF4F0401EC5B22946ED
:100C0000192000F009F80546264604EBD671C1F319
:100C10004F00FFF7C7FF70BD70B504460D4600BF1B
:100C20004FF400311C48FFF733FD0028F8D10121B3
:100C30001948FFF715FD00BF18491748FFF7D2FC08
:100C40000128F9D10022D0211348FFF7B9FD00BFD8
:100C500013491148FFF7C6FC0128F9D121460E4877
:100C6000FFF7B7FD00BF0E49891C0B48FFF7BAFC20
:100C70000128F8D129460848FFF7ABFD00BF084915
:100C8000891C0548FFF7AEFC0128F8D10121024874
:100C9000FFF7F2FC002070BD005800400100030087
:100CA0008200070000BFFEE77047000070B500211A
:100CB00000230F22C47804B3154C246804F4E064C4
:100CC000C4F5E064210AC1F10403CA40447804FA7F
:100CD00003F184781440214309010E4C0678A15594
:100CE000047804F01F050124AC4005786D11AD00B7
:100CF00005F1E025C5F8004109E0047804F01F057E
:100D00000124AC40044D0678761145F8264070BDAC
:100D10000CED00E000E400E080E100E0704700003E
:100D200029B1064AD2690243044BDA6104E0034A5E
:100D3000D2698243014BDA61704700000010024023
:100D400029B1064A12690243044B1A6104E0034ABE
:100D500012698243014B1A61704700000010024083
:100D600029B1064A92690243044B9A6104E0034A9E
:100D700092698243014B9A61704700000010024063
:100D800030B500210022002400232D4D6D6805F0B0
:100D90000C0121B1042905D0082923D105E0294DF2
:100DA000056022E0274D05601FE0254D6D6805F4C4
:100DB0007012234D6D6805F48034022505EB9242D4
:100DC0001CB9214D554305600BE01D4D6D6805F4C0
:100DD00000351DB11C4D5543056002E0194D5543CA
:100DE000056002E0174D056000BF00BF144D6D683F
:100DF00005F0F0010909154D6B5C0568DD404560A3
:100E00000F4D6D6805F4E061090A104D6B5C456893
:100E1000DD4085600A4D6D6805F46051C90A0B4DCF
:100E20006B5C4568DD40C560054D6D6805F440416B
:100E3000890B074D6B5CC568B5FBF3F5056130BDEB
:100E40000010024000127A0000093D00000000205E
:100E500010000020704710B500F002F810BD00002F
:100E60000CB50020019000903348006840F48030B9
:100E70003149086000BF3048006800F4003000903D
:100E80000198401C0190009818B90198B0F5A06F26
:100E9000F1D12948006800F4003010B10120009021
:100EA00001E0002000900098012843D12348006809
:100EB00040F01000214908600846006820F0070053
:100EC00008600846006840F0020008601A48406860
:100ED000194948600846406848600846406840F440
:100EE000806048600846406820F47C1048600846EE
:100EF000406840F4E81048600846006840F08070A0
:100F0000086000BF0C48006800F000700028F9D0AD
:100F10000948406820F003000749486008464068D7
:100F200040F00200486000BF0348406800F00C0039
:100F30000828F9D10CBD000000100240002002403A
:100F4000042808D14FF0E021096941F004014FF075
:100F5000E022116107E04FF0E021096921F004016E
:100F60004FF0E022116170477047000010B5134840
:100F7000006840F0010011490860084640681049C7
:100F800008400E494860084600680E4908400B4971
:100F900008600846006820F4802008600846406821
:100FA00020F4FE0048604FF41F008860FFF753FFF5
:100FB0004FF000600449086010BD000000100240BE
:100FC0000000FFF8FFFFF6FE08ED00E010B540F26C
:100FD00025511D4800F04AF810B31B4800F002F9F3
:100FE000C4B21A48008800F40040C8B91748008805
:100FF00000F4804060B10A2C03D00020134908801F
:1010000020E01248008840F400401049088019E0B0
:101010000D2C06D10D48008840F480400B49088013
:1010200010E00A480088C0F30D0009490C54074835
:101030000088401C0549088008460088C72801DD53
:101040000020088010BD0000003801401C00002076
:101050004000002021B1828942F40052828104E0E4
:1010600082894DF6FF731A408281704770B502463F
:10107000002400230025002040F66A16B14200D16A
:1010800000BFC1F3421501F01F03012606FA03F366
:10109000012D02D19689334006E0022D02D1168A35
:1010A000334001E0968A33400C12012606FA04F41C
:1010B0001688344013B10CB1012000E0002070BD4F
:1010C000F0B50346002400260025002040F66A17EC
:1010D000B94200D100BF1846C1F3421401F01F0607
:1010E000012707FA06F5012C01D10C3004E0022C8F
:1010F00001D1103000E014301AB107682F430760A7
:1011000002E00768AF430760F0BD00002DE9F0473B
:1011100086B005460E460024A24600BFA146002721
:10112000B08900B100BF2F462C8A4CF6FF700440F6
:10113000F08804432C82AC894EF6F3100440B0884A
:1011400031890843718908430443AC81AC8A4FF666
:10115000FF400440B0890443AC8201A8FFF710FEB1
:101160001F48874202D1DDF810A001E0DDF80CA095
:10117000A88900F4004040B10AEBCA0000EB0A1055
:1011800031684900B0FBF1F807E00AEBCA0000EB58
:101190000A1031688900B0FBF1F86420B8FBF0F068
:1011A00004012009642101FB1089A88900F4004092
:1011B00040B1322000EBC900B0FBF1F000F00700B5
:1011C000044308E0322000EB09106421B0FBF1F089
:1011D00000F00F0004432C8106B0BDE8F08700004A
:1011E0000038014001468888C0F30800704700BFFE
:1011F000FEE700BF7047000010B56FF00400FFF776
:101200009FFE0A4800680A49B0FBF1F009490870DE
:101210000846007800EB4001C1EBC0104FF6FF71AB
:1012200001EAC0000449088010BD00002C00002025
:1012300000127A0014000020160000200146114A16
:1012400012884A434FF0E0235A6100229A611A46FD
:10125000126942F001021A6100BF4FF0E0221069EA
:1012600000F001021AB100F48032002AF5D04FF0EC
:10127000E022126922F001024FF0E0231A610022FD
:101280009A6170471600002000BF054A128802F0DC
:101290004002002AF9D0C2B2014B1B1D1A807047D0
:1012A00000380140FFF7A8FF4FF4E13000F02EF8BE
:1012B000FFF710FB17E0FFF7DFFA0B4A0B490C486A
:1012C000FFF7B1FA0B4A0C490C48FFF784FA0948BA
:1012D000B0F900300848B0F900200848B0F9001013
:1012E00007A0FEF799FFE6E728000020260000206F
:1012F0002400002022000020200000201E000020EA
:1013000025642C25642C25640A00000010B586B0E5
:101310000446012144F20400FFF722FD4FF400705F
:10132000ADF8140003208DF8160018208DF8170072
:1013300005A91C48FFF7BDF84FF48060ADF8140014
:1013400004208DF8170005A91648FFF7B2F82520EC
:101350008DF8000003208DF801008DF802000120B7
:101360008DF803006846FFF7A1FC01940020ADF85A
:101370000800ADF80A00ADF80C00ADF810000C2024
:10138000ADF80E0001A90848FFF7C0FE012240F2A7
:1013900025510548FFF794FE01210348FFF75AFE47
:1013A00006B010BD000801400038014021F00042A5
:1013B000A2F16052B2F5801F01F0004328BFD2F1C4
:1013C0007F6C0BD95FEA001C43EAC20242EB50700B
:1013D00018BF704728BF20F001007047B2F5801F8A
:1013E000BCBF184670474FEA410C1CF5001F02D2E3
:1013F000084600F0C4BB70B500F021FA0000008977
:10140000FFF7F6BF4FF00040A0F5800070470000E6
:1014100010B591EA030F48BF83F0004300F16C82DE
:10142000841A71EB030C05D2121943EB0C03001B59
:1014300061EB0C01DFF824E14FEA1154A4EB135CDB
:101440001EEA430F18BF9EEA445F73D023EA0E03DF
:10145000DCF1200E21EA045143F4801332D322FA46
:101460000CFE10EB0E0023FA0CFE41EB0E01CCF14A
:10147000200E03FA0EFE10EB0E0051F10001B1F543
:10148000801FCCF1200E32D201EB045112FA0EF281
:10149000BDE8104058BF7047401C38BF5FEA4202A9
:1014A00018BF7047002814BF20F0010041F100016F
:1014B0004FEA410313F5001F38BF7047A1F1C04147
:1014C00000F00BBA012A43EB0302ACF1200CDCF173
:1014D0001F0E32BF4FF0000E23FA0CF310EB030087
:1014E00041EB0451B4EB115FD0D0A1EB045101F5F5
:1014F000801149085FEA300001EB04510ED350F12E
:10150000000038BF12FA0EFE08D1BDE81040C9E74E
:10151000401C38BF5FEA4202CAD1C3E7BDE81040B1
:101520004FEA410313F5001F38BF7047A1F1C041D6
:1015300000F0D3B99EEA445F08D011EA5E0FBDE81F
:10154000104004BF01F0004100207047BDE810408A
:1015500070B500F074F900BF64FBBE3E0000E0FF10
:101560002DE9C04130B4DFF8A0C23CEA111418BF25
:101570003CEA131400F0EC8081EA03051CEA111424
:1015800044EAD57418BF1CEA131500F0C780A4EB19
:1015900005044FF0004545EAC12145EAC32341EA6D
:1015A000505143EA525304F17F74994204F50034D8
:1015B0004FEAC0204FEAC22208BF904200F09C8050
:1015C0004FEA13650FF24016765D4FEA134506FBAE
:1015D00005F7C7F1807706FB07F74FEAD737A7FB78
:1015E00003687642C8F58038A7FB06CE38BFA8F15D
:1015F000010807FB08E64FF0000EA6FB028CE6FB95
:1016000003CEDCF1000CCEF1004E38BFAEF1010E7E
:10161000A6FB0C584FF000074FF00005E6FB0E87C5
:10162000A1FB08C6A0FB07CE16EB0E0645F1000590
:10163000E1FB076515F1E04E7EBFA4F580345FEA5B
:1016400046066D4116F1800745F100054FEA172760
:101650004FEA066647EA0567A6F1DE46B6F1805F07
:101660004FEA15251FD9384624F0010C05EBC4714B
:10167000BCF1FE6F01EB0C1102D8F0BCBDE800819B
:1016800024425CBF01F5801E9EEAC47F02D4F0BCF8
:10169000BDE80081244238D4F0BCA1F1C041BDE8CE
:1016A000004100F01AB94FEAD22242EA43524FEA0F
:1016B000D323A7FB02864FEAD02040EA415007FB24
:1016C00003661EEA0E0F4FEAD12105FB026658BFE2
:1016D000A6EB0056B6EB00564FEA520E4EEAC37E1A
:1016E00018EB0E0E56EB530EBDD518EB02085E41FB
:1016F0007F1C55F10005B6E74FF480154FF0000749
:101700004FF000064FF00008ADE7F0BC4FF00000CE
:1017100001F1C04101F00041BDE8008111EA0C1F58
:101720000CEA131500D00CE013EA0C1F00F0258022
:101730004FF00000F0BC81EA030101F00041BDE878
:101740000081F0BCBDE8004181EA030100F0C5B8AA
:10175000F0BCBDE8004170B500F071F8097EFC3EB8
:1017600000F007B881EA03014FF0000001F00041EA
:10177000704781EA030100F0B0B8F0BCBDE8004159
:101780004FF0000021497047FFFDFBF9F7F5F4F237
:10179000F0EEEDEBE9E8E6E4E3E1E0DEDDDBDAD80C
:1017A000D7D5D4D3D1D0CFCDCCCBCAC8C7C6C5C46A
:1017B000C2C1C0BFBEBDBCBBBAB9B8B7B6B5B4B381
:1017C000B2B1B0AFAEADACABAAA9A8A8A7A6A5A46C
:1017D000A3A3A2A1A09F9F9E9D9C9C9B9A99999830
:1017E0009797969595949393929191908F8F8E8ED3
:1017F0008D8C8C8B8B8A8989888887878685858460
:1018000084838382828181800000FF070000F87F4B
:1018100010F0004248BF4042B0FA80F310FA03F1E2
:101820000AD0C3F11D0303F580634FEA415002EB78
:10183000035202EBD12170474FF0000070470EF1C8
:10184000020E2EF0030E5EF8046B364205D4012A18
:1018500043EB030515F5001F12D8012841EB010CDD
:101860001CF5001F0CD80ED14FEAD17C15F5001FD6
:101870000CEB4C0C0CF1020C08BF4CEBD37C04E0DD
:101880004FF0080C01E04FEAD37C0CEB4C0526FA34
:1018900005F606F00706B6F1040C06D20EEB860C30
:1018A000BDE870404CF0010C6047DFE80CF0090B1C
:1018B00002024FF000414FF00000A1F5002170BD81
:1018C00019461046012851EB010418BFD4F5001445
:1018D00084BF002001F0004170BD0808A0F5001190
:1018E0004FEA31017047000010B591EA030F48BF7D
:1018F00083F000433FF594AD841A71EB030C07D2DB
:1019000012198CF0004C43EB0C03001B61EB0C0133
:10191000DFF8A4E14FEA1154A4EB135C1EEA430F75
:1019200018BF9EEA445F00F0B08023EA6E03524283
:1019300021EA0451C3EB6E0338BF5B1EDCF1200EBD
:1019400025D322FA0CFE10EB0E0043FA0CFE41EBFD
:101950000E01CCF1200E03FA0EFE10EB0E0051F139
:101960000001CCF1200E29D412FA0EF201EB045141
:10197000BDE8104058BF7047401C1CBFB2F1004F7B
:10198000704700280CBF491C20F00100704712EB83
:10199000020E43EB030218BF4FF0010E4EEA420263
:1019A000ACF1200CDCF11E0E54D943FA0CFE10EB06
:1019B0000E0051F1FF31CCF11E0ED5D50EF1010E06
:1019C00012FA0EFE404141EB010101EB445C5FEA7B
:1019D0005C5C10D910EBDE7001EB045138BFBEF136
:1019E000004FBDE8104018BF704700280CBF491CCD
:1019F00020F00100704730D24FEAD42C11F50011CD
:101A000024F400641BD0B1FA81F20B3AA41AA41E8C
:101A1000D2F12003914030FA03F31943904001EBD7
:101A2000CC71002C01EB0451BDE81040A8BF7047F9
:101A300001F1C0414FF0000001F000417047B0FAE1
:101A400080F310FA03F100D110BDE41A173C4805E9
:101A5000C90AE4E701EB045110BD491001EB045140
:101A6000BDE810404FEA300002E04FF0000170473F
:101A70004A0008BF0042F8D0B2F5001F28BF7047E7
:101A800001F000414FF0000070479EEA445F07D02C
:101A900011EA5E0FBDE8104004BF0021002070472E
:101AA000BDE8104070B5FFF7CAFE00BF40DFF63E4C
:101AB00083F00041104670470000E0FF41000B0E2C
:101AC000D3F19E0208D950F400034FEA032323FA0E
:101AD00002F048BF4042704710B500F00AF800BF5E
:101AE00049922480002070476FF0004282EA200073
:101AF00070470EF1020E2EF0030E5EF8044B2442E6
:101B000004D44FEA4102B2F17F4F11D84FEA4003AB
:101B1000B3F17F4F0CD80ED14FEAD07CB2F17F4F9A
:101B20000CEB4C0C0CF1020C08BF4CEBD17C04E02C
:101B30004FF0080C01E04FEAD17C0CEB4C0324FA87
:101B400003F404F00704B4F1040C06D20EEB840C89
:101B5000BDE810404CF0010C6047DFE80CF00708CE
:101B600002024FF00040A0F5800010BD0846420080
:101B700018BFD2F1807288BF00F0004010BDFF2175
:101B800041EAD050C0057047A81B000800000020A3
:101B9000400000006C010008E81B00084000002025
:101BA000280700008801000800000000010203046B
:101BB00001020304060708090204060800000000E9
:101BC0000000000000000000000000000000000015
:101BD0000000000000A24A04000000000000000015
:081BE0000102030406070809D5
:0400000508000131BD
:00000001FF
