:020000040800F2
:1000000078070020CD010008B30F0008AF0F0008EB
:10001000B10F00087D020008D9110008000000009F
:10002000000000000000000000000000D70F0008E2
:100030007F02000800000000D50F00081D10000816
:10004000E7010008E7010008E7010008E7010008F0
:10005000E7010008E7010008E7010008E7010008E0
:10006000E7010008E7010008E7010008E7010008D0
:10007000E7010008E7010008E7010008E7010008C0
:10008000E7010008E7010008E7010008E7010008B0
:10009000E7010008E7010008E7010008E7010008A0
:1000A000E7010008E7010008E7010008E701000890
:1000B000E7010008E7010008E7010008E701000880
:1000C000E7010008E7010008E7010008E701000870
:1000D000E7010008AD110008E7010008E70100088A
:1000E000E7010008E7010008E7010008E701000850
:1000F000E7010008E7010008E7010008E701000840
:10010000E7010008E7010008E7010008E70100082F
:10011000E7010008E7010008E7010008E70100081F
:10012000E7010008E7010008E7010008E70100080F
:1001300000F002F800F03AF80AA090E8000C8244BF
:100140008344AAF10107DA4501D100F02FF8AFF29C
:10015000090EBAE80F0013F0010F18BFFB1A43F0A5
:10016000010318472811000048110000103A24BF6D
:1001700078C878C1FAD8520724BF30C830C144BF0C
:1001800004680C607047000000230024002500264E
:10019000103A28BF78C1FBD8520728BF30C148BFEA
:1001A0000B6070471FB51FBD10B510BD00F033F8D0
:1001B0001146FFF7F7FF01F011F800F051F803B412
:1001C000FFF7F2FF03BC01F008F800000948804780
:1001D00009480047FEE7FEE7FEE7FEE7FEE7FEE729
:1001E000FEE7FEE7FEE7FEE704480549054A064B41
:1001F000704700002110000831010008780100203C
:1002000078070020780300207803002070477047AB
:10021000704770477047754600F02CF8AE460500F1
:100220006946534620F00700854618B020B5FFF711
:10023000DBFFBDE820404FF000064FF000074FF015
:1002400000084FF0000B21F00701AC46ACE8C009F4
:10025000ACE8C009ACE8C009ACE8C0098D467047FD
:1002600010B50446AFF300802046BDE81040FFF70C
:10027000A6BF00000048704714010020FEE7704749
:1002800001B50098411E0091FBD208BD31B500F0C8
:1002900019F9044600F016F90099001B8842F9D3B9
:1002A00038BD00002DE9F84F00230024DFF8DC9171
:1002B0004FF00F0809F1040A0AF1040B0BF1040EC8
:1002C0000127A7400A683A40BA4275D1DFF8C0C199
:1002D0004D68A5EB0C0665452BD00DDC032D34D005
:1002E00005DC35B3012D19D0022D2FD11BE0112DC6
:1002F00016D0122D2AD119E0B6F5881F19D006DCC8
:10030000B6F5803F15D0B6F5801F1FD111E0B6F5C8
:10031000001F0ED0B6F5041F18D10AE0CB6815E017
:10032000CB681B1D12E0CB6808330FE0CB680C33A1
:100330000CE08B6823B1012B04D00823476105E052
:10034000042303E00823076100E00023FF2A01D80B
:10035000054601E000F1040502D84FEA840603E0F7
:10036000A4F108064FEA86062F6808FA06FC27EA79
:100370000C0703FA06F647EA06072F604D68ED0002
:100380007ED5444DAE6946F00106AE61AD6905F01B
:1003900001050095404D24F003067719BE68A507B6
:1003A0002D0F08FA05FC26EA0C06DFF8F0C06045C0
:1003B00003D14FF0000C25E062E0DFF8E4C06045B7
:1003C00002D14FF0010C1DE0DFF8D8C0604502D12A
:1003D0004FF0020C16E0DFF8D0C0604502D14FF0BC
:1003E000030C0FE0DFF8C4C0604502D14FF0040CED
:1003F00008E0DFF8BCC0604502D14FF0050C01E019
:100400004FF0060C0CFA05FC4CEA060CC7F808C0C5
:100410004D68ED0305D5D9F800501543C9F80050D3
:1004200004E0D9F800509543C9F800504D68AD0379
:1004300005D5DAF800501543CAF8005004E0DAF8A0
:1004400000509543CAF800504D68ED0205D5DBF821
:1004500000501543CBF8005004E0DBF80050954302
:10046000CBF800504D68AD0205D5DEF800501543BD
:10047000CEF8005004E0DEF800509543CEF800506E
:10048000641C102CFFF41CAFBDE8F88F0004014081
:10049000000011100010024000000140000801405F
:1004A000000C014000100140001401400018014000
:1004B000001C0140002A01D001617047090401615C
:1004C00070470000014800687047000004000020E9
:1004D00002480168491C01607047000004000020C8
:1004E00010B50748016841F010010160032000F0D9
:1004F0003BF80F2000F006F800F015F8002010BDC2
:100500000020024010B5044600F030F94FF47A7232
:10051000B0FBF2F000F06DFC00222146501E00F00E
:1005200003F8002010BD7047F0B40D460D4B1B685A
:10053000C3F30223C3F10704042C00D90424191DBA
:10054000072901D2002300E0DB1E012606FA04F190
:10055000491E294099409E40761E16403143F0BC0A
:1005600000F028BD0CED00E000F00701054A10681E
:100570004FF6FF03184040EA01200349084310608A
:10058000704700000CED00E00000FA052DE9F0478F
:1005900004460E46DFF8C481D8F8000000F00700DA
:1005A000B0420FD2D8F8000020F007003043C8F85E
:1005B0000000D8F8000000F00700B04202D001208F
:1005C000BDE8F0872078664F800705D57868A16878
:1005D00020F0F000084378602078C00768D0606899
:1005E000012201280CD0022822D0022393FAA3F181
:1005F000B1FA81F141F02001490931D0396830E088
:100600004FF4003393FAA3F1B1FA81F141F02001E4
:10061000490901D0396800E0796A93FAA3F3B3FA83
:1006200083F303F01F039A40114225D10120C7E74D
:100630004FF0007393FAA3F1B1FA81F141F0200178
:10064000490901D0396800E0796A93FAA3F3B3FA53
:1006500083F303F01F039A4011420DD10120AFE74D
:10066000796A93FAA3F3B3FA83F303F01F039A4072
:10067000114201D10120A3E7796821F00301014370
:100680007960FFF71FFF0546606841F2883901284D
:1006900009D0022814D020E0FFF714FF401B484582
:1006A00001D903208CE77868C0F381000128F3D1D9
:1006B00017E0FFF707FF401B484501D903207FE7FC
:1006C0007868C0F381000228F3D10AE0FFF7FAFE50
:1006D000401B484501D9032072E7786810F00C0FE1
:1006E000F4D1D8F8000000F00700B0420ED9D8F8D5
:1006F000000020F007003043C8F80000D8F80000E0
:1007000000F00700B04201D0012059E720784007EF
:1007100005D57868E16820F4E060084378602078C7
:10072000000706D57868216920F4605040EAC100CE
:10073000786000F021F87968F02292FAA2F201F0D4
:10074000F001B2FA82F2D140064A515CC840064933
:1007500008600F20FFF7D6FE002031E7002002409E
:10076000001002407C1200080000002001480068D0
:10077000704700000000002010B585B01AA0D0E935
:100780000031D0E90220CDE90131CDE903201AA0E2
:1007900000680090194B5968194801F00C02042AAE
:1007A0001DD0082A1BD14FF4701494FAA4F401F45C
:1007B0007012B4FA84F4E24001ACA25CC90310D513
:1007C00059684FF4003393FAA3F301F40031B3FAFC
:1007D00083F3D9401DF80110B0FBF1F0504305B090
:1007E00010BD08485043FAE702030405060708094C
:1007F0000A0B0C0D0E0F1010010200000010024039
:1008000000127A0000093D002DE9F84F0446F84F28
:1008100020784FF00105C00754D078686E04C0F30B
:100820008100012807D07868C0F3810002281CD11C
:100830007868C00319D596FAA6F0B0FA80F040F0B7
:100840002000400901D0386800E0786A96FAA6F1E5
:10085000B1FA81F101F01F0105FA01F1084272D0ED
:10086000606878BB0120BDE8F88F6068B0F5803F14
:1008700011D0A8B1B0F5A02F1BD0386820F480307B
:100880003860386820F4802038606068C8B3FFF7AB
:1008900019FE80461FE0386840F480303860F4E785
:1008A000386820F480303860386820F48020386060
:1008B000EBE7386840F480203860386840F48030D6
:1008C0003860E2E73FE0FFF7FDFDA0EB0800642899
:1008D00001D90320C7E796FAA6F0B0FA80F040F0FD
:1008E0002000400901D0386800E0786A96FAA6F145
:1008F000B1FA81F101F01F0105FA01F10842E2D0DD
:1009000021E0FFE7FFF7DEFD804607E0FFF7DAFDB5
:10091000A0EB0800642801D90320A4E796FAA6F00A
:10092000B0FA80F040F02000400901D0386800E0C3
:10093000786A96FAA6F1B1FA81F101F01F0105FA81
:1009400001F10842E2D12078DFF8A88280074FF059
:10095000000A4FF0020632D578684FF0F80B10F01D
:100960000C0F07D07868C0F38100022828D178687E
:10097000C00325D496FAA6F0B0FA80F040F020002B
:10098000400901D0386800E0786A96FAA6F1B1FA19
:1009900081F101F01F0105FA01F1084204D020693C
:1009A000012801D001205EE738689BFAABF220F005
:1009B000F8016069B2FA82F29040014339605CE06C
:1009C000206990B395FAA5F0B0FA80F048F820506D
:1009D000FFF778FD814607E0FFF774FDA0EB090003
:1009E000022801D903203EE796FAA6F0B0FA80F07B
:1009F00040F02000400901D0386800E0786A96FA9B
:100A0000A6F1B1FA81F101F01F0105FA01F10842E6
:100A1000E2D038689BFAABF220F0F8016069B2FAD4
:100A200082F290400143396027E0FFE795FAA5F094
:100A3000B0FA80F048F820A0FFF744FD814607E0B7
:100A4000FFF740FDA0EB0900022801D903200AE7C7
:100A500096FAA6F0B0FA80F040F02000400901D0EC
:100A6000386800E0786A96FAA6F1B1FA81F101F0EF
:100A70001F0105FA01F10842E2D12078000770D584
:100A8000A069C0B395FAA5F0B0FA80F008EB800039
:100A9000C0F88054FFF716FD814607E0FFF712FD0E
:100AA000A0EB0900022801D90320DCE696FAA6F0A3
:100AB000B0FA80F040F06000B5EB501F01D138680B
:100AC0000BE096FAA6F0B0FA80F040F06000B6EBCA
:100AD000501F01D1386A00E0786A96FAA6F1B1FA9F
:100AE00081F101F01F0205FA02F10842D6D001207F
:100AF000FFF7CCFB35E0FFE795FAA5F0B0FA80F000
:100B000008EB8000C0F880A4FFF7DCFC814607E01A
:100B1000FFF7D8FCA0EB0900022801D90320A2E6C8
:100B200096FAA6F0B0FA80F040F06000B5EB501FE6
:100B300001D138680BE096FAA6F0B0FA80F040F0E8
:100B40006000B6EB501F01D1386A00E0786A96FA6F
:100B5000A6F1B1FA81F101F01F0205FA02F1084293
:100B6000D6D12078400771D5F86940F08050F861FF
:100B7000F86900F080500090DFF87CB0DBF80000EE
:100B800040F48070CBF80000FFF79CFC814607E042
:100B9000FFF798FCA0EB0900642801D9032062E666
:100BA000DBF80000C005F3D5E068012812D0B0B131
:100BB000052823D0386A20F001003862386A20F016
:100BC00004003862E06841F2883B98B3FFF77AFC92
:100BD000814624E0386A40F001003862F2E7386A62
:100BE00020F001003862386A20F004003862E9E73A
:100BF000001002400000424200700040386A40F09D
:100C000004003862386A40F001003862DAE7FFF722
:100C100059FCA0EB0900584501D9032023E696FAB8
:100C2000A6F0B0FA80F040F04000B5EB501F02D1C2
:100C300038680DE017E096FAA6F0B0FA80F040F0C0
:100C40004000B6EB501F02D1386A01E038E0786A04
:100C500096FAA6F1B1FA81F101F01F0205FA02F14C
:100C60000842D4D02CE0FFF72DFC814607E0FFF7C7
:100C700029FCA0EB0900584501D90320F3E596FAB9
:100C8000A6F0B0FA80F040F04000B5EB501F01D163
:100C900038680BE096FAA6F0B0FA80F040F0400019
:100CA000B6EB501F01D1386A00E0786A96FAA6F1D7
:100CB000B1FA81F101F01F0205FA02F10842D6D122
:100CC000E06980B37968C1F38101022970D04FF0E7
:100CD00080794FF00076022809D099FAA9F0B0FA8D
:100CE00080F048F820A0FFF7EDFB044668E099FA91
:100CF000A9F0B0FA80F048F820A0FFF7E3FB8246A5
:100D000007E0FFF7DFFBA0EB0A00022801D9032070
:100D1000A9E596FAA6F0B0FA80F040F0200040096C
:100D200002D0386801E060E0786A96FAA6F1B1FA7C
:100D300081F101F01F0105FA01F10842E1D1206AB9
:100D4000B0F5803F05D17868A16820F400300843F1
:100D50007860D4E908010843796821F474110843E4
:100D6000786099FAA9F0B0FA80F048F82050FFF7BF
:100D7000A9FB044606E0FFF7A5FB001B022801D9EA
:100D8000032070E596FAA6F0B0FA80F040F020005B
:100D9000400901D0396800E0796A96FAA6F0B0FA05
:100DA00080F000F01F0005FA00F00142E3D01CE0E3
:100DB0001DE0FFF787FB001B022801D9032052E545
:100DC00096FAA6F0B0FA80F040F02000400901D079
:100DD000396800E0796A96FAA6F0B0FA80F000F07F
:100DE0001F0005FA00F00142E3D100203BE501209D
:100DF00039E510B5401EB0F1807F01D3012010BD50
:100E00004FF0E02460610F21601700F0D3F800205C
:100E1000A06107202061002010BD704790F83900C4
:100E2000704738B5044620680168C1F30001C26804
:100E300002F48072002904D01AB1E16B41F0010183
:100E4000E1630168C1F34002416901F0010122B18F
:100E500019B1E26B42F00402E2630268C2F380025D
:100E600022B119B1E26B42F00202E2630268C2F3FE
:100E7000C00222B119B1E16B41F00801E1630168E0
:100E8000C1F34011C06800F0200019B110B1204634
:100E900000F0FFF820680168C1F3C011C06800F0DD
:100EA000800019B110B1204600F04BF920680168AC
:100EB000C1F38011C06800F0400019B110B12046A4
:100EC00000F0D2F8E06B002809D020680168406883
:100ED0000090012084F839002046FFF79EFF38BDBE
:100EE00090F83930012B03D0122B01D0022070472B
:100EF00031B32AB390F83830012B23D0012380F886
:100F0000383081628285C2850021C16390F8392022
:100F1000122A19D0222280F8392080F8381001686E
:100F2000CA6842F48072CA6001684A6942F00102EC
:100F30004A610068C16841F02001C160002070472B
:100F40000120704702207047322280F83920E4E700
:100F500030B50068124988420CD1124A5088010409
:100F600008D41146440409784FF0000307D50A2934
:100F700001D0538030BD40F40040508030BD0D2979
:100F80000AD0094DC0F30D042955401C80B2508091
:100F9000C728F3D9538030BD40F48040508030BD25
:100FA00000380140080000200C0000207047FEE7D8
:100FB000FEE770470907090E002806DA00F00F0067
:100FC00000F1E02080F8141D704700F1E02080F867
:100FD000001470477047704730B58FB001210591FC
:100FE000090406910024079402250C950D910E909A
:100FF00005A8FFF709FC00B1FEE70F20009001955E
:1010000002944FF480600390049402216846FFF735
:10101000BDFA002800D0FEE70FB030BDFFF758BA88
:101020000D48016841F00101016041680B4A11401F
:10103000416001680A4A11400160016821F4802181
:101040000160416821F4FE0141604FF41F0181609D
:101050000449C00308607047001002400000FFF818
:10106000FFFFF6FE08ED00E010B50168CA6822F047
:101070004002CA6090F83910322906D0012180F868
:101080003910FFF793FF002010BD222180F839109E
:10109000F7E710B590F83910222903D0322901D092
:1010A000022010BD8168B1F5805F11D0016919B3CC
:1010B0000168496801F07F03816A4A1C82620B70F3
:1010C000C18D491E0904090CC1851CD0002010BD2A
:1010D000816A02693AB102685268D2B20A80816AB2
:1010E000491C8162ECE702685268C2F308020A8078
:1010F000816A891C8162E3E701684A68816A4B1C46
:1011000083620A70DCE70168CA6822F02002CA60C4
:1011100090F83910322910D00168CA6822F4807220
:10112000CA6001684A6922F001024A61012180F81F
:101130003910FFF70DFF002010BD122180F8391083
:10114000F7E790F83910122903D0322901D0022094
:1011500070478168B1F5805F0CD0016A4A1C026259
:10116000026809785160C18C491E0904090CC184C8
:1011700010D019E0016A02680988C1F308015160C2
:10118000016919B1016A491C0162ECE7016A891C15
:101190000162E8E70168CA6822F08002CA6000685C
:1011A000C16841F04001C1600020704710B5084897
:1011B000FFF737FE0648FFF731FE0128FAD101227A
:1011C00004490348FFF78CFE0028F8D110BD000049
:1011D000D400002008000020FEE7704786B0FFF72B
:1011E0007FF94FF4E010FFF7F7FE2048816941F0E6
:1011F00008018161816901F008010191816941F073
:1012000040018161806900F0400001902024029437
:1012100001200390049003200590154F02A9384641
:10122000FFF740F80294134D02A92846FFF73AF859
:10123000114E3C46012220212046FFF73BF90122B6
:1012400020212846FFF736F93046FFF719F800222B
:1012500020212046FFF72EF9002220212846FFF703
:1012600029F93046FFF70CF8E3E7000000100240D0
:10127000000C014000180140FFFF7F00000000004B
:10128000000000000102030406070809AC12000870
:10129000000000200C0000006C010008B8120008DB
:1012A0000C0000206C0700008801000800A24A041E
:0812B000000000000000000036
:0400000508000131BD
:00000001FF
