:020000040800F2
:1000000048210020650200084F2200082F15000833
:100010004D220008CB0400088523000800000000E2
:10002000000000000000000000000000CD010008FA
:10003000CD04000800000000110200086122000841
:100040007F0200087F0200087F0200087F0200088C
:100050007F0200087F0200087F0200087F0200087C
:100060007F0200087F0200087F0200087F0200086C
:100070007F0200087F0200087F0200087F0200085C
:100080007F0200087F0200087F0200087F0200084C
:100090007F0200087F0200087F0200087F0200083C
:1000A0007F020008ED2200087F0200087F0200089E
:1000B0007F0200087F0200087F0200087F0200081C
:1000C0007F0200087F0200087F0200087F0200080C
:1000D0007F0200087F0200087F0200087F020008FC
:1000E0007F0200087F0200087F0200087F020008EC
:1000F0007F0200087F0200087F0200087F020008DC
:100100007F0200087F0200087F0200087F020008CB
:100110007F0200087F0200087F0200087F020008BB
:100120007F0200087F0200087F0200087F020008AB
:1001300000F002F800F03AF80AA090E8000C8244BF
:100140008344AAF10107DA4501D100F02FF8AFF29C
:10015000090EBAE80F0013F0010F18BFFB1A43F0A5
:100160000103184790540000B0540000103A24BF17
:1001700078C878C1FAD8520724BF30C830C144BF0C
:1001800004680C607047000000230024002500264E
:10019000103A28BF78C1FBD8520728BF30C148BFEA
:1001A0000B6070471FB51FBD10B510BD00F058F9AA
:1001B0001146FFF7F7FF02F0A3FC00F076F903B455
:1001C000FFF7F2FF03BC00F079F90000224B196839
:1001D0000868B0E8F00F80F30988BFF36F8F4FF025
:1001E000000080F311884EF00D0E704700000000F3
:1001F00006480068006880F3088862B661B6BFF3FD
:100200004F8FBFF36F8F00DF00BF00BF08ED00E02E
:10021000EFF30980BFF36F8F0F4B1A6820E9F00FDF
:10022000106008B54FF0500080F31188BFF34F8F76
:10023000BFF36F8F03F04AFB4FF0000080F311888B
:10024000BDE8084019680868B0E8F00F80F3098835
:10025000BFF36F8F704700BF68000020EFF3058089
:10026000704700000948804709480047FEE7FEE75D
:10027000FEE7FEE7FEE7FEE7FEE7FEE7FEE7FEE756
:1002800004480549054A064B70470000EB22000868
:1002900031010008481B002048210020481D002093
:1002A000481D0020032A40F2308010F0030C00F0BB
:1002B000158011F8013BBCF1020F624498BF11F8A0
:1002C00001CB00F8013B38BF11F8013BA2F1040259
:1002D00098BF00F801CB38BF00F8013B11F00303D1
:1002E00000F06280083AC0F0088051F8043B083AF8
:1002F00051F804CBA0E80810F5E7121D5CBF51F8D7
:10030000043B40F8043BAFF30080D20724BF11F850
:10031000013B11F801CB48BF11F8012B24BF00F8B5
:10032000013B00F801CB48BF00F8012B704702F0F9
:10033000FF0343EA032242EA024200F069B84FF0A9
:10034000000200B5134694469646203922BFA0E825
:100350000C50A0E80C50B1F12001BFF4F7AF090731
:1003600028BFA0E80C5048BF0CC05DF804EB890022
:1003700028BF40F8042B08BF704748BF20F8022B65
:1003800011F0804F18BF00F8012B7047704770477D
:10039000704710B500F05CF8006810BD10B5044659
:1003A00000F056F8046010BD10B5203AC0F00B8084
:1003B000B1E81850203AA0E81850B1E81850A0E869
:1003C0001850BFF4F5AF5FEA027C24BFB1E81850C3
:1003D000A0E8185044BF18C918C0BDE810405FEA33
:1003E000827C24BF51F8043B40F8043B08BF7047AF
:1003F000D20728BF31F8023B48BF11F8012B28BFB4
:1004000020F8023B48BF00F8012B70474FF0000274
:100410000429C0F0128010F0030C3FF492AFCCF12D
:10042000040CBCF1020F18BF00F8012BA8BF20F884
:10043000022BA1EB0C01FFF784BF5FEAC17C24BF54
:1004400000F8012B00F8012B48BF00F8012B704782
:1004500000487047E41A002000487047E41A002062
:100460007546FFF7F9FFAE4605006946534620F092
:100470000700854618B020B5FFF702FFBDE8204011
:100480004FF000064FF000074FF000084FF0000B50
:1004900021F00701AC46ACE8C009ACE8C009ACE803
:1004A000C009ACE8C0098D46704710B50446AFF3EB
:1004B00000802046BDE81040FFF781BE01491820AA
:1004C000ABBEFEE7260002007047FEE7704772B63B
:1004D000FEE700002DE9F84FDFF8C8910024A9F1EC
:1004E000040B23460F2709F1040AABF1040ED1E0F7
:1004F0000125A54006EA0502AA4276D1DFF8A8C187
:100500004E68A6EB0C0866452BD00DDC032E34D0CC
:1005100005DC36B3012E19D0022E2FD11BE0112E8F
:1005200016D0122E2AD119E0B8F5881F19D006DC92
:10053000B8F5803F15D0B8F5801F1FD111E0B8F590
:10054000001F0ED0B8F5041F18D10AE0CB6815E0E3
:10055000CB681B1D12E0CB6808330FE0CB680C336F
:100560000CE08B682BB1012B4FF0080303D04561E1
:1005700004E0042302E0056100E00023FF2A01D823
:10058000064601E000F104064FEA840501D9A5F111
:100590002005D6F8008007FA05FC28EA0C0803FAC3
:1005A00005F548EA0508C6F800804D68ED0070D5ED
:1005B0003E4DAE6946F00106AE61AD6924F003061A
:1005C00005F0010500953A4D06EB050CDCF80850E6
:1005D000A607360F07FA06F825EA0805DFF8D480E3
:1005E000404503D14FF0000825E052E0DFF8C88015
:1005F000404502D14FF001081DE0DFF8C0804045C2
:1006000002D14FF0020816E0DFF8B480404502D175
:100610004FF003080FE0DFF8AC80404502D14FF007
:10062000040808E0DFF8A080404502D14FF005083B
:1006300001E04FF0060808FA06F848EA0508CCF889
:1006400008804D68D9F80060ED024D4601D516438B
:1006500000E096432E604D68DAF80060AD02554622
:1006600001D5164300E096432E604D68DBF800602C
:10067000AD035D4601D5164300E096432E604D68FC
:10068000DEF80060ED03754601D5164300E09643A1
:100690002E60641C0A681646E2407FF429AFBDE86C
:1006A000F88F000008040140000011100010024003
:1006B0000000014000080140000C01400010014012
:1006C0000014014000180140001C014001488068EE
:1006D000704700000C00002070B5040025D094F88D
:1006E0003D00002520B984F83C50204600F078FAFF
:1006F000242084F83D002068016821F00101016098
:100700002068016841F4004101602068016821F41B
:100710000041016000F00EFC4D4A6168914201D831
:100720004C4900E04C49884201D2012070BD4B4940
:100730002368B0FBF1F15E6826F03F060E435E6071
:100740006368934206D94FF4967359434FF47A7312
:10075000B1FBF3F12368491C1E6A26F03F063143C2
:1007600019626168914210D84900401EB0FBF1F255
:10077000521CC2F30B02042A01D2042022E0B0FB77
:10078000F1F0401CC0F30B001CE0A268F2B301EBD7
:10079000C10303EB0116431EB3FBF6F35B1C43F4EA
:1007A00080431B0549D092B301EBC10202EB01115A
:1007B000401EB0FBF1F0401CC0F30B0040F4804041
:1007C00040F400402168CA694CF6FF739A43104315
:1007D000C861D4E9071001432068026822F0C00212
:1007E00011430160D4E9030101432068826848F2A3
:1007F000FF339A4311438160D4E90501084321681E
:10080000CA6822F0FF021043C86001E00EE016E063
:100810002068016841F0010101602564202084F80E
:100820003D00256384F83E50002070BD01EB410679
:10083000431EB3FBF6F35B1CB3E70120C2E701EBF9
:100840004101401EB0FBF1F0401CC0F30B00B7E7C4
:10085000A086010080841E0000093D0040420F0078
:100860002DE9FF4F83B00025DDE910799A469346C4
:100870000446DDF848800095FFF728FF064694F807
:100880003D0020287CD1192301228549204600966D
:1008900000F064FF0028F5D194F83C0001286FD0E7
:1008A000012084F83C0020680168C90703D1016871
:1008B00041F0010101602068016821F400610160DC
:1008C000222084F83D00402084F83E0025646762C1
:1008D000A4F82A90608D20857248E062CDE90086F8
:1008E00053465A462046049900F03AFE00287DD12E
:1008F000208DDFF8B491202768B1012814D0022898
:10090000206801681ED041F480610160206841695F
:1009100080690090B6E020684169816900910168B2
:1009200041F400710160ADE02068016821F480614C
:10093000016072B62068416981690091016841F4E3
:1009400000710AE041F40061016072B620684169FB
:1009500081690091016821F48061016062B691E0D3
:10096000032868D801280CD0022843464FF0000223
:100970004946204600960FD000F0F0FEB0BB10E0D4
:100980008BE032464146204600F08EFF70BB206867
:100990000069616A08706CE000F0E0FE30BB72B67E
:1009A00034E02068016821F48061016072B620683B
:1009B0000069616A0870606A401C6062208D401E98
:1009C0002085608D401E6085384846F2A811006879
:1009D000B0FBF1F0C0EBC00000EB80000090401EC7
:1009E000009008D020684069C04300E029E040073B
:1009F0000CD50098F3E744F8305F6773A57320695E
:100A000040F02000206162B625731AE0206801687A
:100A100041F40071016020680069616A0870606AD1
:100A2000401C6062218D491E2185618D491E6185B2
:100A300062B621681BE032464146204600F034FF92
:100A400018B1012007B0BDE8F08F20680069616A25
:100A50000870606A401C6062218D491E2185618D8D
:100A6000491E618521684A69D24352070AD409693F
:100A70000170606A401C6062208D401E2085608D80
:100A8000401E6085208D00287FF46AAF84F83D7099
:100A900084F83E5084F83C50D4E70220D2E70000AE
:100AA000020010000000FFFF0400010018000020F9
:100AB0002DE9FF4F83B09A46DDE91197934604462E
:100AC000DDF84080FFF702FE054694F83D0020283F
:100AD0007FD11923012240492046009500F03EFEB7
:100AE000002876D194F83C00012872D0012084F8C7
:100AF0003C0020680168C90703D1016841F0010189
:100B000001602068016821F400610160212084F8FF
:100B10003D00402084F83E0000262664C4F824806E
:100B2000A4F82A90608D20852C48E062CDE90075FC
:100B300053465A462046049900F090FD70B930E0C3
:100B40002A463946204600F0E7FE58B1206C0428BA
:100B500004D12068016841F400710160012007B0F0
:100B6000BDE8F08F606A216800780861606A401C07
:100B70006062218D491E89B22185628D521E628577
:100B800022685369DB435B070BD469B100781061BD
:100B9000606A401C6062208D401E2085608D401E72
:100BA0006085208D0028CBD12A463946204600F0AA
:100BB000A9FD0028CAD154F83D0B016841F4007129
:100BC0000160202004F81E09E67766770020C6E75A
:100BD000FFE70220C3E70000020010000000FFFF53
:100BE00010B586B000210091019102910391006837
:100BF000104988421BD1104CA06940F00800A06148
:100C0000A069694600F0080004904FF4406000902D
:100C100012200190032003900848FFF75BFCE06975
:100C200040F48000E061E06900F48000049006B0C8
:100C300010BD00000058004000100240000C0140B0
:100C40000248816802781144816070470C000020DE
:100C5000074810B5016841F010010160032000F061
:100C6000A1F80F2000F006F800F04AF8002010BDAF
:100C70000020024030B505461C4887B0816941F428
:100C800000618161806906A900F40060009001A8FC
:100C900000F030F900F05EF91549164AB0FBF1F1A9
:100CA0001548491E0260416040F2E7320021C0E968
:100CB00003218160816100F015FB040012D10E4810
:100CC00000F03EFB04000DD1192000F03DF8102D7E
:100CD00007D200222946192000F044F80748056091
:100CE00000E0012407B0204630BD000000100240A3
:100CF00040420F00002C0140340100201000002071
:100D00000F4808B5816941F001018161816901F0F5
:100D100001010091C16941F08051C161C0690022A7
:100D200000F0805000900F21901E00F01BF8054845
:100D3000416821F0E06141F00071416008BD0000B0
:100D40000010024000000140002809DB00F01F02F3
:100D5000012191404009800000F1E020C0F800111D
:100D600070470000F0B40E4B1B680C46C3F302231F
:100D7000C3F10705042D00D90425191D072901D247
:100D8000002300E0DB1E012606FA05F1491E214082
:100D900099409E40761E16403143F0BC01F007BBDF
:100DA0000CED00E0064900F0070208684FF6FF036B
:100DB000184040EA0220034A1043086070470000D0
:100DC0000CED00E00000FA052DE9F0470F460500A4
:100DD00061D0434E306800F00700B84209D2306855
:100DE00020F0070038433060306800F00700B84258
:100DF00051D128683B4C810712D5400703D5606864
:100E000040F4E06060602878000703D5606840F433
:100E1000605060606068A96820F0F000084360607E
:100E20002878C00728D06868012810D021680228D7
:100E300010D0890700292EDA616821F003010143EF
:100E40006160FFF743FC804641F288390DE021687C
:100E50008903EFE78901EDE7FFF738FCA0EB080114
:100E6000494502D90320BDE8F0876068696800F051
:100E70000C00B0EB810FEFD1306800F00700B842F2
:100E80000BD9306820F0070038433060306800F03C
:100E90000700B84201D00120E5E72878400705D5D2
:100EA0006068E96820F4E060084360602878000723
:100EB00006D56068296920F4605040EAC10060608E
:100EC00000F058F86168084AC1F30311515CC8404A
:100ED0000649086006480068FFF7CCFE0020C2E71C
:100EE0000020024000100240CA54000818000020F0
:100EF000100000200F2202600C4A536803F0030325
:100F00004360536803F0F0038360536803F4E063C5
:100F1000C36052684FF4E06303EAD20202610448FE
:100F2000006800F0070008607047000000100240F1
:100F3000002002400448054900684968044AC1F39A
:100F40000221515CC8407047180000200010024088
:100F5000DA5400080448054900684968044AC1F3A6
:100F6000C221515CC84070471800002000100240A8
:100F7000DA5400080E4A51680E4801F00C03042BA5
:100F800011D0082B0FD10C48C1F38343C903C05CB7
:100F90000AD55168084AC1F34041921E515C054A86
:100FA0005043B0FBF1F070470449484370470000DC
:100FB0000010024000127A00BA54000800093D00F7
:100FC0002DE9F84F040070D02078C04DC00749D0FB
:100FD0006868C0F38100012807D06868C0F3810009
:100FE000022809D16868C00306D52868800339D56E
:100FF00060680028E7D035E06068B0F5803F0BD02E
:1010000010B1B0F5A02F11D0286820F480302860EE
:10101000286820F4802002E0286840F480302860AE
:10102000606890B1FFF752FB06460AE0286840F47A
:1010300080202860F0E700BFFFF748FB801B642892
:1010400073D828688003F7D50CE0FFF73FFB06460E
:1010500005E000BFFFF73AFB801B6428F0D8286842
:101060008003F7D420789A4E80074FF001094FF0A3
:10107000000839D5686810F00C0F07D06868C0F315
:101080008100022809D16868C00306D42868800757
:1010900014D52069012808D110E02069B0B1C6F844
:1010A0000090FFF713FB074605E00AE1FFF70EFB90
:1010B000C01B0228C4D828688007F7D52868616952
:1010C00020F0F80040EAC10028600DE0C6F800807A
:1010D000FFF7FCFA074604E0FFF7F8FAC01B022806
:1010E00023D828688007F7D4207800072CD57948C2
:1010F000A169D9B1C0F80090FFF7E8FA074604E00B
:10110000FFF7E4FAC01B02280FD8686A8007F7D5FA
:1011100071484FF4FA510068B0FBF1F0009000BF45
:101120000098411E0091FAD20EE080E0C0F80080E5
:10113000FFF7CCFA074604E0FFF7C8FAC01B022805
:1011400075D8686A8007F7D42078400760D5E869C9
:101150000027C00008D4E86940F08050E861E869E1
:10116000012700F0805000905C480168C90513D445
:101170000168834641F480710160FFF7A7FA824657
:1011800006E000BFFFF7A2FAA0EB0A0064284ED8E1
:10119000DBF80000C005F5D5E06801280AD008B1E9
:1011A000052813D0286A20F001002862286A20F060
:1011B000040002E0286A40F001002862E06841F281
:1011C000883B98B1FFF782FA82460BE0286A40F02C
:1011D00004002862EEE700BFFFF778FAA0EB0A01EF
:1011E00059455AD8286A8007F6D50CE0FFF76EFA01
:1011F000824605E0FFF76AFAA0EB0A0159454CD890
:10120000286A8007F6D41FB1E86920F08050E861B1
:10121000E06988B36968C1F38101022944D00228DA
:10122000C6F8608004D0FFF751FA044638E034E095
:10123000FFF74CFA074604E0FFF748FAC01B022804
:101240002BD828688001F7D4206AB0F5803F05D1FB
:101250006868A16820F4003008436860D4E9080198
:101260000843696821F4741108436860C6F8609007
:10127000FFF72CFA044606E025E000BFFFF726FA48
:10128000001B022809D828688001F7D51BE000BFA1
:10129000FFF71CFA001B022802D90320BDE8F88FD3
:1012A00028688001F4D40EE00128F7D06868226A2B
:1012B00000F48031914204D1616A00F470108842D8
:1012C00001D00120EAE70020E8E70000001002401A
:1012D000000042428004424218000020007000409A
:1012E0007047704710B5040003D094F83D0010B16A
:1012F00007E0012010BD002084F83C00204600F0EB
:101300001EF8022084F83D00211D206800F0F4FF43
:10131000012084F8460084F83E0084F83F0084F8F9
:10132000400084F8410084F8420084F8430084F8C7
:10133000440084F8450084F83D00002010BD70474B
:1013400090F83D10012901D001207047022180F85A
:101350003D100168CA6842F00102CA6000680E4987
:1013600088420ED00D4988420BD0B0F1804F08D092
:101370000B49884205D00B49884202D00A4988426D
:1013800004D1816801F00701062903D0016841F00A
:101390000101016000207047002C01400034014031
:1013A0000004004000080040000C0040704770B589
:1013B0000446006801694FF00005C943890715D448
:1013C000C168C943890711D4E91E01610120207752
:1013D000206880698007204602D0FFF7E7FF04E01D
:1013E00000F098F8204600F096F82577206801690B
:1013F000C943490717D4C168C943490713D46FF0DB
:1014000004010161022020772068806910F4407F88
:10141000204602D0FFF7CAFF04E000F07BF8204628
:1014200000F079F8257720680169C943090716D4C7
:10143000C168C943090712D46FF008010161042093
:1014400020772068C0698007204602D0FFF7AEFFF2
:1014500004E000F05FF8204600F05DF82577206892
:101460000169C943C90617D4C168C943C90613D461
:101470006FF010010161082020772068C06910F426
:10148000407F204602D0FFF791FF04E000F042F8D1
:10149000204600F040F8257720680169C943C90754
:1014A00008D1C168C943C90704D1891E016120461A
:1014B00000F032F820680169C943090609D4C168FF
:1014C000C943090605D46FF0800101612046FFF78A
:1014D00007FF20680169C943490609D4C168C943A7
:1014E000490605D46FF040010161204600F01EF866
:1014F00020680169C94389060BD4C168C9438906BC
:1015000007D46FF0200101612046BDE87040FFF76D
:10151000E8BE70BD7047704700680349884201D13A
:10152000FFF78EBB70470000002C01407047FEE7BC
:1015300001684A69D24352050FD46FF480624A6150
:10154000002140F8301F202242738173026942F06B
:1015500004020261017301207047002070470000FF
:101560002DE9F84F0446006889460B9D01689846AE
:10157000174641F4806101602068016841F4807180
:10158000016000954FF0011B0022594620460A9B3E
:1015900000F0E4F84FF4007A40B120680068C0051C
:1015A00001D5C4F840A00320BDE8F88F216809F0F8
:1015B000FE0008612B46284920460A9A00F016F9D9
:1015C000F0BB20684169806900902A4620460A994C
:1015D00000F0A2F940B1206C04283AD120680168DB
:1015E00041F40071016034E0FEB2B8F1010F09D09E
:1015F0002168380A08612A4620460A9900F08CF9C9
:101600000028E8D1206806612A4620460A9900F0A1
:1016100083F90028DFD12068016841F480710160FE
:1016200000950022594620460A9B00F097F80028B2
:10163000B3D1216809F0FF0040F00100086100E02B
:1016400007E02B46044920460A9A00F0CFF800280C
:10165000AAD00120A8E70000020001002DE9F8430C
:10166000044600680D46DDE908970168984616466D
:1016700041F4807101604B4600224FF00111204679
:10168000009700F06BF848B120680068C00502D5EB
:101690004FF4007020640320BDE8F883216805F052
:1016A000FE0008613B464A461549204600F09EF878
:1016B00088B920684169806900903A4649462046C9
:1016C00000F02AF948B1206C042804D12068016890
:1016D00041F4007101600120DEE7F5B2B8F1010FBD
:1016E00009D02168300A08613A464946204600F090
:1016F00013F90028E7D1206805610020CCE700003D
:101700000200010070B516460D4604461EE0204654
:10171000FFF70EFF08B1012070BD681C16D0FEF760
:10172000D5FF801BA84200D885B920684069C04316
:1017300040070BD5002044F8300F20216173A073BF
:10174000216941F0200121612073E4E720684069AC
:10175000C0434007DBD4002070BD00002DE9F047F6
:10176000984617460D460446C1F30746DDF820901B
:101770002AE000BFB8F1FF3F26D0FEF7A7FFA0EB9D
:101780000901414502D8B8F1000F1DD12068012E92
:1017900016D0806925EA00000004000C12D0002059
:1017A000B84211D1002044F8300F20216173A0739A
:1017B000216941F02001216120730120BDE8F087FB
:1017C0004069E7E70120EBE72068012E0AD0806935
:1017D00025EA00000004000C06D00020B842C9D061
:1017E0000020EBE74069F3E70120F7E72DE9F04738
:1017F000984616460D4604464FF000094FF0200A61
:10180000C1F3074723E020684069C043400515D471
:101810002068016841F40071016021686FF4806004
:101820004861C4F8309084F83DA084F83E90216C63
:1018300041F00401216484F83C9021E0701C06D042
:10184000FEF744FFA0EB0800B04203D816B1012F09
:101850001FD021E02068012F15D0806925EA000003
:101860000004000C18D000BF44F8309F84F80DA08D
:1018700084F80E90216941F02001216184F80C90D8
:101880000120BDE8F087406925EA00000004000C53
:10189000EAD12068406901E02068806925EA0000FB
:1018A0000004000CAFD1ECE72DE9F0410025904693
:1018B0000E460446202728E04069C043C0060CD4E9
:1018C00054F8301B6FF01000486144F810596777E6
:1018D000A577206A2062257714E0FEF7F7FEA0EBDB
:1018E0000800B04200D886B920684069C04340066D
:1018F0000BD544F8305F6773A573206940F0200072
:10190000206125730120BDE8F08120684169C94349
:101910004906D1D40020F6E770B516460D460446B8
:101920001EE02046FFF704FE08B1012070BD681CD0
:1019300016D0FEF7CBFE801BA84200D885B92068E0
:101940004069C04300060BD5002044F8300F202129
:101950006173A073216941F0200121612073E4E7E4
:1019600020684069C0430006DBD4002070BD000041
:101970002DE9FF47054602A9684600F097F9DFF810
:101980003C8000246E4602AF6FF00D0936F914005A
:1019900003F05AFB414603F079FA45F8240037F981
:1019A000140003F051FB494603F011FD05EB8401DF
:1019B000641CC860032CE9DBBDE8FF873333834137
:1019C0002DE9F04F89B002A8FFF7D2FF684E0498C6
:1019D000314603F051FB674F394603F057FA05468D
:1019E0003146039803F048FB394603F04FFA0446AA
:1019F0003146029803F040FB394603F047FADDE92F
:101A00000612CDE900122A462146059B00F08EFA07
:101A100059480068594C2060009059480068594D59
:101A2000824660602868584E8146A0603068E06059
:101A300083464946484603F01FFB07465146084681
:101A400003F01AFB394603F0B9F9012103F0BFFC9A
:101A50004FF07E5103F0DCFB03F084F90746884623
:101A60005946484603F008FB81465146009803F06A
:101A700003FB494603F0A2F9012103F0A8FC03F09F
:101A800071F93A46434600F053FFDFF800A1002207
:101A9000534602F08DFEDFF8F8B04FF0C0494A46D9
:101AA0005B4602F0F1FC02F001FC3A4F3862E1685B
:101AB000606803F0E1FA8046A168206803F0DCFA70
:101AC000414603F0AFFB012103F081FC03F04AF92A
:101AD00000F0E6FC0022534602F06AFE4A465B46EE
:101AE00002F0D2FC02F0E2FBF8610121306803F061
:101AF0006EFC316803F0C0FA04464FF0404128689C
:101B000003F0BAFA296803F0B7FA214603F08AFB1A
:101B10004FF07E5103F052F903F024F904461648C1
:101B200088460121006803F052FC316803F0A4FAF2
:101B3000064613480121006803F049FC296803F0B8
:101B40009BFA314603F03AF903F00CF9224643467A
:101B500000F0EEFE0022534602F02AFE4A465B46A3
:101B600002F092FC02F0A2FB786209B0BDE8F08FAF
:101B7000DB0F4940000034434C0000208801002066
:101B800050000020540000205800002000806640D3
:101B9000FB2109401C0000207CB514460D4606467A
:101BA0006B4606223B21D02000F0FAF800280BD12A
:101BB000BDF8001049BA3180BDF8021049BA298039
:101BC000BDF8041049BA21807CBD0022114630F9CD
:101BD0001130491C1A440A29F9DB0A2092FBF0F063
:101BE00000B270477CB514460D4606466B46062289
:101BF0004321D02000F0D4F800280BD1BDF800100C
:101C000049BA3180BDF8021049BA2980BDF80410E4
:101C100049BA21807CBD10B580216B2000F00AF903
:101C200000216B2000F006F9032000F0CEF8002020
:101C300000F0C6F8322000F0E5F80021382000F06E
:101C4000F9F800216A2000F0F5F80021232000F0C7
:101C5000F1F88021372000F0EDF8752000F012F83F
:101C6000D02801D0012010BD01216B2000F0E2F846
:101C700000216C2000F0DEF8322000F0C3F80020D4
:101C800010BD00001FB540F6FF73012203A98DE8C7
:101C90000E0013460246D0210348FEF7E1FD9DF8F1
:101CA0000C0004B010BD0000E00000202DE9F84F4A
:101CB000394D0E4607462A1DA91C2846FFF792FFFC
:101CC00005F10A02911EA81DFFF766FF334C05F1CE
:101CD0001C022988207822F8101002F114010091CA
:101CE0006A8821F8102001F1140BAA882BF8102023
:101CF00001F1280AEA882AF8102001F13C092A8912
:101D000029F8102001F150086A8928F810200A21CA
:101D1000401CB0FBF1F201FB1200207005F11C0029
:101D2000FFF753FF60800098FFF74FFFA0805846F1
:101D3000FFF74BFFE0800546B4F9020003F084F999
:101D4000616903F06FFA03F063F93880B4F90400B5
:101D500003F07AF9216903F065FA03F059F9788004
:101D6000284603F071F9A16903F05CFA03F050F919
:101D7000B8805046FFF729FF20814846FFF725FF2E
:101D800060814046FFF721FFA08121893180618970
:101D90007180B080BDE8F88F7C0100201C0000201D
:101DA0003EB540F6FF74CDE900320A460146029482
:101DB00001230248FEF754FD00203EBDE000002054
:101DC000C006010E1C2000F035B8C006010E1B2015
:101DD00000F030B8BC2801D3012110E0622801D303
:101DE00002210CE02A2801D3032108E0142801D3A2
:101DF000042104E00A2801D3052100E006211A206D
:101E000000F018B810B504464FF47A70844201D936
:101E1000044602E0042C00D20424B0FBF4F0401E7F
:101E2000C1B2192000F006F86008BDE81040FFF7C5
:101E3000D1BF000003B583B040F6FF73012204A9AF
:101E40008DE80E0013460246D0210348FEF730FE0F
:101E500005B0002000BD0000E000002010B5FFF735
:101E6000AFFDBDE81040012000F05EBE10B50B4A8A
:101E700000210B4800F0AEFE0A4C084A0021206009
:101E80002432094800F0A6FE044A6060483200216E
:101E9000064800F09FFEA06010BD00004C540008F2
:101EA0005722000800000020512200085D1E000893
:101EB0000D4808B5816941F010018161816901F027
:101EC00010010091816941F008018161816901F08F
:101ED00008010091816941F004018161806900F08D
:101EE0000400009008BD0000001002400D4810B52D
:101EF0000B4901600C49416000214FF48042816030
:101F0000C0E9031241618161C1610162FEF7E4FB36
:101F1000002803D0BDE81040FEF7D9BA10BD00007C
:101F200000580040E0000020A08601002DE9FF4F8E
:101F300083B0C34CDDE91065994690468A468346D6
:101F400013F0FF4F05D116F0FF4F02D115F0FF4FF0
:101F50007ED02946284603F08FF831460090084687
:101F600003F08AF807464946084603F085F83946E3
:101F700002F024FF009902F021FF00F0A7FD0746C0
:101F80000146484603F078F881463946304603F06A
:101F900073F810903946284603F06EF811902169C5
:101FA000A06803F069F861690546E06803F064F829
:101FB000294603F037F961690746206903F05CF8A8
:101FC000E1680546A06803F057F8294602F0F6FEDE
:101FD00061690646606903F04FF8A1680546A0688C
:101FE00003F04AF84FF07C5103F01CF9294602F047
:101FF000E5FE05463146119803F03EF8009029466B
:10200000109803F039F8009903F00CF90190294673
:10201000484603F031F805463946119803F02CF88C
:10202000294603F0FFF800903946109803F024F891
:1020300005463146484603F01FF8294603F0F2F8FA
:1020400005466068B0F5000F33DB0199606800E079
:102050004BE003F011F87B4E314603F00DF8A16917
:1020600002F0ACFEA0610099606803F005F831460B
:1020700003F002F8E16902F0A1FEE0612946606820
:1020800002F0FAFF314602F0F7FF216A02F096FEF5
:102090002062A169584602F091FEE16983465046EC
:1020A00002F08CFE216A8246404602F087FE80469E
:1020B00003E00020A061E06120620199206802F045
:1020C000DBFF594602F07AFE83460099206802F051
:1020D000D3FF514602F072FE82462946206802F084
:1020E000CBFF414602F06AFE8046574D58462946CE
:1020F00002F0C2FF03902946504602F0BDFF83461E
:102100002946404602F0B8FFA7688246E56826697E
:102110000146606902F0B0FF81465946304602F040
:10212000ABFF804685F00040039902F0A5FF4146D1
:1021300003F078F8494603F075F8A16802F03EFE16
:10214000A0605946606902F097FF814651463046CB
:1021500002F092FF80463946039802F08DFF414617
:1021600002F02CFE494603F05DF8E16802F026FE1D
:10217000E0606169039802F07FFF8146514628467E
:1021800002F07AFF80465946384602F075FF414614
:1021900003F048F8494602F011FE216902F00EFEF4
:1021A00020613146039802F067FF064659462846EB
:1021B00002F062FF05465146384602F05DFF2946AF
:1021C00002F0FCFD314603F02DF8616902F0F6FDE6
:1021D00060616169606902F04FFF2169074620690B
:1021E00002F04AFFE1680646E06802F045FFA16898
:1021F0000546A06802F040FF294602F0DFFD3146A7
:1022000002F0DCFD394602F0D9FD00F05FFC054626
:102210000146A06802F030FFA0602946E06802F0A5
:102220002BFFE0602946206902F026FF2061294645
:10223000606902F021FF606107B0BDE8F08F000027
:10224000440000206F12033B6F12833AFEE7FEE763
:10225000012000F069BC012000F066FCFBE70000F3
:1022600010B5502080F31188BFF34F8FBFF36F8FED
:1022700001F07AFE18B104494FF080500860002048
:1022800080F3118810BD000004ED00E030B58FB080
:1022900028216846FEF753F814210AA8FEF74FF8E4
:1022A00001210804CDE900100024029402250491C4
:1022B000CDE907504FF4E01009906846FEF780FE24
:1022C00008B172B6FEE70F20CDE90A054FF4806031
:1022D000CDE90C4002210AA80E94FEF775FD0028F6
:1022E00001D072B6FEE70FB030BD70470148FFF76E
:1022F0005EB8000034010020F0B502681C4B1D4D93
:102300001D4E1E4F1E4C4FF0804C984209D0A042EB
:1023100007D0604505D0A84203D0B04201D0B842F2
:1023200004D122F0700E4A6842EA0E02984209D0A7
:10233000A04207D0604505D0A84203D0B04201D0EA
:10234000B84203D122F44075CA682A434D6922F08D
:1023500080022A4302608A68C2620A6882629842E6
:1023600001D0A04201D10969016301214161F0BDA1
:10237000002C01400004004000080040000C004018
:1023800000340140FEE7490050EAC12018BF042094
:102390004A0D18BF40F0010040F2FF72B2EB515FEE
:1023A00008BF40F00200012808BF05207047090758
:1023B000090E002804DB00F1E02080F800147047CB
:1023C00000F00F0000F1E02080F8141D70472DE9A7
:1023D000F0414F1E00EBC7010446D1E9000115464C
:1023E0001E4637F006020DD02A46334602F0E0F9C9
:1023F0007F1E04EBC703D3E9002301F089FF37F008
:102400000602F1D1022F25D0042F13D0062F18BFBA
:10241000BDE8F0812A46334602F0CAF9D4E90A231E
:1024200001F076FF2A46334602F0C2F9D4E90823C8
:1024300001F06EFF2A46334602F0BAF9D4E90623CA
:1024400001F066FF2A46334602F0B2F9D4E90423CC
:1024500001F05EFF2A46334602F0AAF9D4E90223CE
:1024600001F056FF2A46334602F0A2F9D4E90023D0
:10247000BDE8F04101F04CBF012202F07ABF01F04B
:1024800047BF002213461046114601F0FDBF000071
:10249000024A0020110702F06CBF000001FDFFFF9F
:1024A0002DE9F04D8D4F21F0004A86B005460C46CF
:1024B000BA452ADBAAEB070028430AD088488245A0
:1024C00001DC1AD1CDB106B02846BDE8F04DFFF7CA
:1024D000D3BF844A844B284602F06AF907460E4669
:1024E000824A834B2846214602F062F906B03A46FA
:1024F0003346BDE8F04D01F00BBF0120FDF74EFF64
:1025000006B0BDE8F04DFFF7BCBF7A48824542DA1D
:10251000BAF1795F0BDA2846FFF735FF042808BFC8
:10252000FFF7B6FF284606B02146BDE8F08D2A46E3
:102530000B46104602F03CF9834602466E480E46B2
:102540000B4606217844FFF742FF5A46334602F015
:102550002FF9804669488A465A4633460421784412
:10256000FFF735FF5A46334602F022F900223B4678
:1025700001F0CEFE02460B464046514601F084FF74
:102580002A46234602F014F906B02A462346BDE83F
:10259000F04D01F0BDBE284624F0004100223D462A
:1025A0003B4602F003FA4FF0FF3202F0E2FE06462D
:1025B000024653480F460B4606217844FFF707FFB3
:1025C00032463B4602F0F4F8CDE900014D48324670
:1025D0003B4604217844FFF7FAFE32463B4602F0C0
:1025E000E7F800222B4601F093FE83460291304625
:1025F000394600F061FF804643480D46504517DCE0
:10260000DDE900015A46029B01F03EFF42462B469F
:1026100002F0CEF842462B4601F07AFE012202F08B
:10262000A8FE304A304B02F0B3FA304A304B4CE04F
:102630004FF0000A52460B46404601F069FECDE9D4
:10264000031052462B461046194602F0B1F83246A6
:102650003B4602F0ABF9DDE9033201F015FF064617
:102660000F46DDE900015A46029B01F00DFF83464B
:10267000009101223046394602F07BFE194A1A4B7E
:1026800002F094F906460F4601224046294602F020
:1026900070FE5A46009B02F08BF832463B4602F031
:1026A00077FA06460F4601225046294602F061FE9F
:1026B0000E4DDFF858802A46434602F077F932463D
:1026C0003B4602F073F92A46434602F06FF9002CAC
:1026D000D8BF81F0004106B0BDE8F08D0000F03FAA
:1026E0000000F07F075C143326A6913C182D44545B
:1026F000FB21F93F0000E03FA02F0000B62F0000B3
:102700002A2F0000402F00003333EF3FFB21E93F29
:102710002DE9F84F04460D4621F000400091734921
:10272000814211DC7249884201DC06D12CB120467D
:102730002946BDE8F84FFFF79FBE6E48002DCCBF7D
:102740006D496E49BDE8F88F6D49814211DD6D49D3
:102750008142D8BF4FF0FF366DDD20462946FFF796
:1027600012FE042808BFFFF793FE20462946BDE865
:10277000F88F6549654F25F00045814233DD644996
:10278000814219DD002632464FF08043204629461B
:1027900001F0BEFD80468A4601222046294602F00D
:1027A000E8FD00223B4602F0F3F94246534601F0B1
:1027B0006BFE04460D463EE001260022BA463B462B
:1027C0002046294601F0A4FD80460F4600225346CC
:1027D0002046294602F0DCF942463B4601F054FE11
:1027E00004460D4627E04B4981421BDDDFF828A156
:1027F0000226002253462046294601F0D9FF002236
:102800003B4601F085FD80460F4600225346204698
:10281000294602F0BDF942463B4601F035FE04462A
:102820000D4608E0032622462B4600203B4901F0D6
:102830002BFE04460D4622462B461046194601F053
:10284000B7FF8B46824602460B4601F0B1FF0746B2
:102850000246334888460B4606217844FFF7B7FD09
:1028600052465B4601F0A4FF82462E488B463A460C
:10287000434605217844FFF7AAFD3A46434601F056
:1028800097FF02460B46002E504659460CDA01F0DF
:102890003FFD22462B4601F08BFF01B022462B461E
:1028A000BDE8F04F02F082B801F032FD22462B461F
:1028B00001F07EFF1C4A7A4402EBC603D3E90023F1
:1028C00002F066F922462B4602F062F9174A7A4472
:1028D00002EBC603D3E9002302F068F8009A002A4D
:1028E000B8BF81F00041BDE8F88F0000000010443F
:1028F0000000F07F182D4454FB21F93FFB21F9BF64
:102900000000DC3F0000203E0000F33F0000F03FED
:102910000000E63F008003400000F83F0000F0BFE9
:10292000422D0000002D00009E2C0000662C0000AF
:102930002DE9F04D9446CCF1000423F000464CEA1A
:102940000404594F46EAD4749A46884621F000425E
:10295000BC4206D8454240EA050442EAD474BC426F
:1029600004D9BDE8F04D6246FFF789BDAAF1405594
:10297000A5F17F6555EA0C040BD0022404EAAA7481
:102980004A4DDFF82CE144EAD87452EA000B04D037
:102990000CE0BDE8F04DFFF7BBBE002C14BF012CCE
:1029A000BDE8F08D022C30D0032C32D056EA0C0B4F
:1029B0000AD0BE4220D1BA4209D126F0804622F088
:1029C00080423346114617E000291ADB25E0DFF884
:1029D000E4B0FB44002C04BFDBE90001BDE8F08D4E
:1029E000012C02BFDBE9000181F00041BDE8F08D60
:1029F000022C0AD0032C0CD0BA4212D1B8F1000F2D
:102A00000BDA2A482C49BDE8F08D28462B49BDE851
:102A1000F08D28467146BDE8F08D24482849BDE870
:102A2000F08D921B12153C2AC4BF204F244E10DC9F
:102A3000BAF1000FBEBF12F13C0F00273E4608DB83
:102A4000624601F021FD21F00041FFF761FE0746DB
:102A50000E4694B1012C08BF86F000460DD0194AED
:102A6000194B022C3846314615D002F091F82A460F
:102A7000BDE8F04D114B02F08BB8002213463846EA
:102A8000314601F059FE04BF0220FDF787FC3846AD
:102A90003146BDE8F08D02F07BF82A46BDE8F04DE6
:102AA000064B01F083BF00000000F07F182D445456
:102AB000FB2109C0FA2B0000FB21F9BFFB210940D3
:102AC000FB21F93F075C143326A6A13C10B5044650
:102AD0004FF0FF3102F07BFC0849A1EB6404214672
:102AE00002F0CAFA214602F0C7FA4FF07F5102F015
:102AF0008FFB2146BDE8104002F0BEBADF59375FB8
:102B000010B5FEF7A5F8FFF7C1FBFFF7D1F9FFF706
:102B1000EDF9FFF780F800F021F8FFF7A7F900F0D2
:102B200039F8002010BD000010B5EFF3058149B958
:102B3000EFF3108131B908490968022905D1EFF393
:102B4000118111B16FF0050403E0002408B100F019
:102B500009FE204610BD0000B8000020EFF30580FC
:102B600058B9EFF3108040B909490868022801D02C
:102B700030B109E0EFF3118030B16FF0050070471C
:102B800001200860002070474FF0FF3070470000C0
:102B9000B800002010B5EFF3058060B9EFF31080A6
:102BA00048B90B490868022802D0012806D00BE07A
:102BB000EFF3118040B16FF0050010BD02200860F6
:102BC00000F038FE002010BD4FF0FF3010BD0000B7
:102BD000B8000020F0B585B04FEA01034FF00004C3
:102BE000EFF305810394A1BBEFF3108189BB214969
:102BF0000968022902D1EFF3118151BB48B3802645
:102C000018218DF8104004AD42B3176807B13D4656
:102C100097691FB139467F1E382F02D21779FF07F7
:102C200002D0002005B0F0BD576907B1BE08D2F848
:102C300008C0BCF1000F0DD0D4685C2C18D3126909
:102C40003AB137B18DE806103246294601F04DF908
:102C500003900DE0D7685FB912694AB903AACDE9BC
:102C60000012B2B2294601F013F9012800D00394F2
:102C70000398D7E7B80000202DE9F041134C0F4628
:102C8000054666692068001D00F03CFC681C07D101
:102C900037B12168BDE8F0410D48091D00F082BC44
:102CA00020683544B5424560216805D2A068BDE87A
:102CB000F041091D00F05EBC6068091D00F05AFC7F
:102CC000206B854200D22563BDE8F08168000020BA
:102CD000000700202DE9F041054600F06FFC2D4C67
:102CE0002069401C206120682B4F10B1E06930B38F
:102CF0002BE025602069012827D1002606EB8600FD
:102D000007EB800000F028FC761C382EF6D3234811
:102D100000F022FC2148143000F01EFC1F4828302F
:102D200000F01AFC1D483C3000F016FC1B485030E7
:102D300000F012FC194860601430A06005E02068C3
:102D4000E96AC06A884200D82560E06A401CE062F7
:102D50006864E86AA169884200D9A06100EB80003C
:102D600007EB8000291D00F01DFC00F047FCE06926
:102D700000280CD02068E96AC06A884207D2084956
:102D80004FF080500860BFF34F8FBFF36F8FBDE8E7
:102D9000F08100006800002050020020B0060020F2
:102DA00004ED00E038B500F009FC104CA068C8B98B
:102DB0000F4800F0D1FB0E48143000F0CDFB0C485A
:102DC0002060143060600A4B00202833009003F12B
:102DD000500210210A2000F0FFFDA06010B105A1F3
:102DE00000F08AFCBDE8384000F008BCA4000020D8
:102DF00014070020546D72510000000030B4026CC2
:102E00000B46002A0BD0C1681144C1604468A1423E
:102E100001D30168C16030BC1846FDF743BA30BC2D
:102E200070472DE9F041856B174604460026026C79
:102E300082B1C7B1E068FDF735FAE168206C091A84
:102E4000E1602268914202D26168081AE060022FB4
:102E500016D017E02068A8B9606801F0E9F80646C6
:102E6000002060600EE0A068FDF71CFA216CA068ED
:102E70000844A0606168884204D32068A06001E033
:102E800005B16D1E6D1CA5633046BDE8F08110B51F
:102E9000044690F8590058B101280CD002280FD0F0
:102EA000502080F31188BFF34F8FBFF36F8FFEE781
:102EB000206B00F0B7FB2046BDE8104000F0B2BB2D
:102EC00010BD000010484FF44061420706D0C01DFD
:102ED0000D4920F00700411AC1F540610B4A00235B
:102EE0000144C2E900030839103A21F007011160DA
:102EF0004B600B600B1AC0E9001393604FF0004069
:102F00005360D06070470000E40E0020CC00002029
:102F1000144E154CA6F29C474FF08058DFF84C90A9
:102F200012E000BF00F04AFBF068C568281D00F001
:102F3000E9FA2069401E2061E068401EE06000F070
:102F40005DFB2846FFF7A3FFE0680028EAD1386858
:102F50000128F9D9C9F80080BFF34F8FBFF36F8FF5
:102F6000F2E70000EC0600206800002004ED00E01D
:102F700070B51D46049C51B1C4F80020C4E90F018E
:102F80000121204600F05CFD84F84C5070BD2460A7
:102F9000F4E72DE9F0470E46DDE90984174682463D
:102FA00091009946089DA522206BFDF7C0F96FF0AE
:102FB0000301206B01EB8701084420F00707780725
:102FC00007D0502080F31188BFF34F8FBFF36F8F6E
:102FD000FEE72218315C82F83410315C11B1401CDC
:102FE0001028F6D3002684F84360382D00D3372507
:102FF000E562C4E91356201D00F0B9FA04F1180087
:1030000000F0B5FA2461C5F138006462A06166651C
:1030100084F858604A465146384600F03BFA206032
:10302000B8F1000F01D0C8F80040BDE8F0870000FB
:1030300030B5114900E011460A688242FBD34B6863
:103040005C18844203D140681844486008464368CD
:103050001C18944209D1084C103C2468A24209D0A3
:1030600052681A4442600A6812680260814200D0C5
:10307000086030BD0460F9E7CC00002070B5002482
:1030800041600B4D0061914206D8D11A826991428C
:1030900006D2011D686807E09A4203D2994201D323
:1030A000012403E0011D286800F064FA204670BD89
:1030B000A400002010B5044600F080FAA06B28B1EF
:1030C0005FF0000400F09AFA204610BD0124F9E7F1
:1030D00030B589B0304D55E00498002806DADDE9B6
:1030E0000601059A9047049800284BDB069C60690E
:1030F00010B1201D00F006FA02A800F0B9F802464F
:1031000004980A283ED2DFE800F00505053D263781
:1031100005053D260598A169034601442046FFF7B1
:10312000ADFF00B3616A20468847E069012829D1D4
:10313000002000900598A1690023421819462046F6
:1031400001F080F878B9502080F31188BFF34F8FD9
:10315000BFF36F8FFEE70598A06128B18118134671
:103160002046FFF78BFF0DE0502080F31188BFF35E
:103170004F8FBFF36F8FFEE794F82C0010B92046F5
:1031800000F050FA002204A9A86800F0ABFD002866
:10319000A2D109B030BD0000A40000202DE9FC41FF
:1031A0000F46054600F08AFB01A800F061F80446CE
:1031B000019818B100F0B4FFBDE8FC81224EAFB118
:1031C00070680068A8B30027291B3A46B06800F071
:1031D000A7FA00F0A5FF0028EED11C494FF080505F
:1031E0000860BFF34F8FBFF36F8FE5E7A542EBD8C1
:1031F00000F096FF30682746C068C468201D00F0C4
:1032000081F9E069012810D1A0692B4641193A469D
:103210002046FFF733FF40B10020034601460090EF
:103220002A46204601F00EF820B1616A2046884700
:10323000C2E707E0502080F31188BFF34F8FBFF340
:103240006F8FFEE70127BFE7A400002004ED00E038
:1032500006484168096829B14168C968C968496870
:10326000016370474FF0FF31FAE70000680000206B
:1032700070B5054600F072FE064E04463069844281
:1032800003D200F009F8012000E000202860204669
:10329000346170BDA4000020F8B5194D1FE0C0686E
:1032A000C4680668201D00F02DF9616A2046884731
:1032B000E069012813D1A0693044B04206D92461E5
:1032C0006060211D286800F055F908E000200346E1
:1032D000014600903246204600F0B4FF38B128681D
:1032E00001680029DBD16968C5E90010F8BD5020EC
:1032F00080F31188BFF34F8FBFF36F8FFEE700009D
:10330000A400002008484068401C4FF0500080F3A3
:10331000118804D0BFF34F8FBFF36F8FFEE7BFF369
:103320004F8FBFF36F8FFEE7D4000020074C20685B
:10333000016841B1C0680021D0F80000FFF72EFFFE
:10334000FFF7C6FEF3E701210020F7E7A400002005
:103350002DE9F041044600F031F994F9455004F1AB
:10336000240609E0606A48B1304600F0A1FE08B1C9
:1033700000F026FA6D1E6DB2002DF3DC4FF0FF3623
:1033800084F8456000F03AF900F018F994F94450D7
:1033900004F1100709E0206948B1384600F088FEC2
:1033A00008B100F00DFA6D1E6DB2002DF3DC84F84B
:1033B0004460BDE8F04100F021B900002DE9F04182
:1033C0000546002700F07AFA314E306808B9FFF759
:1033D00079FDF06805424BD1C5B3083568070ED0BA
:1033E00005F00700C0F108000544680707D0502029
:1033F00080F31188BFF34F8FBFF36F8FFEE72DB3BC
:103400007068854234D82248103001460C6801E0CB
:1034100020460C466168A94202D221680029F7D1F2
:1034200031688C4224D007682168016060680837E1
:10343000411B10290FD96019420708D0502080F392
:103440001188BFF34F8FBFF36F8FFEE710E041602D
:103450006560FFF7EDFD61687068401A7060B268E2
:10346000904200D2B060F06801430020C4E900013E
:1034700000F056FE780707D0502080F31188BFF384
:103480004F8FBFF36F8FFEE73846BDE8F081000035
:10349000BC00002010B5031F4FF080741C601B1F80
:1034A00021F001011960191F024B0B6014394038DB
:1034B0000A6010BD053300082DE9F04106460F46AD
:1034C00001F080FA041E0D4618BF0120284320F0A9
:1034D0000040C0F17F6000F1E040C00F0ED0301C12
:1034E00018BF0120384320F00040C0F17F6000F198
:1034F000E040C00F04BF0120FCF750FF20462946E2
:10350000BDE8F081D0E9013201699A60D0E9012378
:103510005A604A68824201D182684A600022026190
:103520000868401E0860086870470000034B03608D
:1035300003F15C0008608020106070472C080020B8
:10354000044B036003F15C0008604FF4807010606E
:1035500070470000880A002000F108014FF0FF3298
:10356000C0E90112C16001610021016070470021C2
:103570000161704730B50B685A1C02D000F1080297
:1035800002E0026904E02246546825689D42FAD9A7
:1035900053684B6099608A60516008610168491CFA
:1035A000016030BD42684A6093688B6093685960DF
:1035B000916008610168491C01607047502080F3E8
:1035C0001188BFF34F8FBFF36F8F0A494868401CC3
:1035D000486001280CD10848006810F0FF0F07D0A0
:1035E000502080F31188BFF34F8FBFF36F8FFEE73A
:1035F00070470000D400002004ED00E0084948684E
:1036000028B1401E486001D180F3118870475020D6
:1036100080F31188BFF34F8FBFF36F8FFEE7000079
:10362000D400002070B5002827D0144DA0F1080464
:103630006168E868014207D1502080F31188BFF328
:103640004F8FBFF36F8FFEE722683AB1502080F3AF
:103650001188BFF34F8FBFF36F8FFEE78143616027
:1036600000F02CF960686968084468602046FFF73C
:10367000DFFCBDE8704000F053BD70BDBC00002011
:103680004FF0E02000210161816105494FF47A7219
:103690000968B1FBF2F1491E4161072101617047E0
:1036A0001800002010B5FCF7D9FD114910280ED3E1
:1036B00000F1E02090F8F0030A78904207D2502001
:1036C00080F31188BFF34F8FBFF36F8FFEE7094878
:1036D0000068896800F4E060884207D9502080F3D0
:1036E0001188BFF34F8FBFF36F8FFEE710BD00004F
:1036F000D40000200CED00E010B5084B002200BF04
:1037000053F832401CB1521C082AF9D310BD43F8BB
:10371000321003EBC201486010BD0000100200200F
:1037200070B515460E460446FFF748FF94F944105D
:103730000020491C01D184F8440094F94510491C2B
:1037400001D184F84500FFF759FFA06B28B92A463C
:10375000314604F1240000F051F82046BDE87040E5
:10376000FFF7F6BD10B5020014D00F48806B38B1DA
:10377000502080F31188BFF34F8FBFF36F8FFEE7A8
:1037800000F09CF800211046FFF776FA00F0C8FC24
:10379000002807D105494FF080500860BFF34F8FD4
:1037A000BFF36F8F10BD00006800002004ED00E043
:1037B00002498A6A026049694160704768000020D6
:1037C00001490120486270476800002010B50C468E
:1037D00050B1094909681831FFF7CCFE2046BDE811
:1037E00010400121FFF748BA502080F31188BFF341
:1037F0004F8FBFF36F8FFEE76800002070B514464F
:103800000D4668B10A4909681831FFF7CBFE0CB1C3
:103810004FF0FF3521462846BDE87040FFF72CBA2F
:10382000502080F31188BFF34F8FBFF36F8FFEE7F7
:103830006800002030B587B00024039405AA04A9CD
:1038400003A80494FFF772FEDDE903010094CDE9BB
:103850000110002315A11748059A00F046FB164DEC
:10386000002868631FD000F0BDFC012809D0401C6F
:1038700019D1502080F31188BFF34F8FBFF36F8FA2
:10388000FEE7502080F31188BFF34F8FBFF36F8F97
:103890004FF0FF3028630120E8616C6107B0BDE89C
:1038A000304000F045B807B030BD000049444C45F9
:1038B00000000000112F0008680000200248816B02
:1038C000491C81637047000068000020164810B54D
:1038D000816B11B10121416210BD002141628169FA
:1038E000124A01E0B9B1491E01EB810352F82330BD
:1038F000002BF7D001EB810302EB830202F10804F5
:1039000053685B685360A34201D15B685360DA6817
:103910000260816110BD502080F31188BFF34F8F8A
:10392000BFF36F8FFEE70000680000205002002008
:103930001CB5264908780190FF20087008788DF89A
:1039400000009DF800009DF8002000F0F00090427B
:1039500007D0502080F31188BFF34F8FBFF36F8FD4
:10396000FEE79DF800001A4B00F050001870072089
:10397000986005E09DF8002052008DF80020401E60
:103980009DF800201206F5D49860032807D0502037
:1039900080F31188BFF34F8FBFF36F8FFEE74FF4B3
:1039A00040709860019808700A48016841F47001FD
:1039B0000160016841F070410160FFF761FE002085
:1039C0005860FCF715FC00201CBD000000E400E07E
:1039D000D400002020ED00E038B5049D18B153B1AB
:1039E000CAB181B120E0502080F31188BFF34F8F1E
:1039F000BFF36F8FFEE7502080F31188BFF34F8F26
:103A0000BFF36F8FFEE7502080F31188BFF34F8F15
:103A1000BFF36F8FFEE739B1502080F31188BFF3F9
:103A20004F8FBFF36F8FFEE750241C46012384F8AD
:103A300046302B460094FFF79BFA204638BD000025
:103A400070B50D46040025D0FFF7B8FDD4E90F206E
:103A5000216802FB001161600021A1632168A1605F
:103A60000A46D4E90F01401E00FB0121E160214616
:103A70004FF0FF3001F8440F487004F110008DB191
:103A8000FFF76AFD04F12400FFF766FDFFF7B6FDBE
:103A9000012070BD502080F31188BFF34F8FBFF31A
:103AA0006F8FFEE721690029F0D000F001FB0028AC
:103AB000ECD004494FF080500860BFF34F8FBFF344
:103AC0006F8FE3E704ED00E02DE9FF4782B01D466C
:103AD0008A464FF00008040003D0BAF1000F08D066
:103AE00011E0502080F31188BFF34F8FBFF36F8F29
:103AF000FEE7206C38B1502080F31188BFF34F8F60
:103B0000BFF36F8FFEE7022D0AD1E06B012807D0CB
:103B1000502080F31188BFF34F8FBFF36F8FFEE704
:103B200000F00EFA3F4F4FF000094FF0805648B9B1
:103B3000049838B1502080F31188BFF34F8FBFF342
:103B40006F8FFEE7FFF73AFDA06BE16B884207D36A
:103B5000022D05D00498D0B1B8F1000F1AD01EE0A4
:103B60002A4651462046FFF75CF9616A19B104F113
:103B7000240000F09DFA20B13E60BFF34F8FBFF3E9
:103B80006F8FFFF73BFD012006B0BDE8F087FFF720
:103B900035FD22E06846FFF70BFE4FF00108FFF706
:103BA0002DFDFFF78BFEFFF709FD94F94400401C43
:103BB00001D184F8449094F94500401C01D184F867
:103BC0004590FFF71BFD04A9684600F027F930B1C6
:103BD0002046FFF7BDFB00F0A3FA0020D4E7FFF773
:103BE000EDFCA06BE16B884213D1FFF707FD04F1F8
:103BF00010000499FFF7EAFD2046FFF7A9FB00F04B
:103C00008FFA00289ED13E60BFF34F8FBFF36F8FB6
:103C100098E7FFF7F3FC2046FFF79AFB00F080FAE5
:103C200090E7000004ED00E02DE9F0471F469046C4
:103C30008946040003D0B9F1000F08D011E05020EC
:103C400080F31188BFF34F8FBFF36F8FFEE7206CB7
:103C500038B1502080F31188BFF34F8FBFF36F8FBF
:103C6000FEE7022F0AD1E06B012807D0502080F335
:103C70001188BFF34F8FBFF36F8FFEE7FFF712FD81
:103C80005020EFF3118680F31188BFF34F8FBFF3FD
:103C90006F8FA06BE16B884206D3022F04D0002007
:103CA00086F31188BDE8F08794F945503A464946B5
:103CB0002046FFF7B6F8681C04D06D1C84F8455008
:103CC0000120EDE7606A0028FAD004F1240000F03A
:103CD000EFF90028F4D0B8F1000FF1D00121C8F8B5
:103CE0000010EDE72DE9F747002683B08A4604006F
:103CF00003D0BAF1000F08D011E0502080F31188F2
:103D0000BFF34F8FBFF36F8FFEE7206C38B15020A9
:103D100080F31188BFF34F8FBFF36F8FFEE700F082
:103D20000FF9DFF8F4804FF000094FF0805748B9E1
:103D3000059838B1502080F31188BFF34F8FBFF33F
:103D40006F8FFEE7FFF73AFCA56BC5B151462046E1
:103D5000FFF754F86D1EA563206950B104F11000FF
:103D600000F0A6F928B1C8F80070BFF34F8FBFF379
:103D70006F8FFFF743FC012006B0BDE8F087059880
:103D800008B11EB106E0FFF739FC27E06846FFF7EF
:103D90000FFD0126FFF732FCFFF790FDFFF70EFC49
:103DA00094F94400401C01D184F8449094F94500F2
:103DB000401C01D184F84590FFF720FC05A9684616
:103DC00000F02CF8002820460AD0FFF7C1FA00F0D6
:103DD000A7F92046FFF76EF90028B3D00020CBE703
:103DE000FFF768F990B104F124000599FFF7EEFCA4
:103DF0002046FFF7ADFA00F093F90028A2D1C8F8E9
:103E00000070BFF34F8FBFF36F8F9BE72046FFF724
:103E10009FFA00F085F995E704ED00E02DE9F04107
:103E20000C46050011D0C4B1FFF7C8FB174B5A6907
:103E30006E682068911B471C17D02F689B6A9F42B1
:103E400019D0964217D8012410E0502080F3118831
:103E5000BFF34F8FBFF36F8FFEE7502080F31188C1
:103E6000BFF34F8FBFF36F8FFEE70024FFF7C6FB52
:103E70002046BDE8F081884205D9401A20602846D6
:103E8000FFF796FCF1E700202060DCE768000020E7
:103E90002DE9FF5F8346DDE90E87994616468A467F
:103EA0009000FFF78BFA05001CD05C20FFF786FA24
:103EB000040014D00020256384F85900CDE90240A5
:103EC000CDE900874B46324651465846FFF761F828
:103ED0002046FEF7FFFE012004B0BDE8F09F284613
:103EE000FFF7A0FB4FF0FF30F6E7F0B585B0DDE956
:103EF0000B640A9DA6B1DCB15C27009726630226FD
:103F000084F85960002604AFCDE90246CDE9005798
:103F1000FFF73FF82046FEF7DDFE049805B0F0BD40
:103F2000502080F31188BFF34F8FBFF36F8FFEE7F0
:103F3000502080F31188BFF34F8FBFF36F8FFEE7E0
:103F40000548C16919B1806B18B100207047012084
:103F50007047022070470000680000200148406957
:103F600070470000680000202DE9F0412E4C00272A
:103F7000A06B40B1206A401C2062606A00B101273A
:103F80003846BDE8F0816669761C666113D16068C9
:103F9000006838B1502080F31188BFF34F8FBFF312
:103FA0006F8FFEE76068A1686160A060A06A401C36
:103FB000A062FFF74DF9206BDFF87080864209D3CD
:103FC0006068006880B16068C068C56868688642DB
:103FD0000DD220632068C06A00EB800158F82100F0
:103FE0000128CAD90127C8E74FF0FF30F1E7281DA3
:103FF000FFF788FAA86A18B105F11800FFF782FAEE
:10400000E86AA169884200D9A06100EB800108EB51
:104010008100291DFFF7C6FAE86A2168C96A88424B
:10402000CED30127CCE7000068000020500200201A
:1040300070B504004FF0000133D01B4D2868844256
:1040400007D0502080F31188BFF34F8FBFF36F8FDD
:10405000FEE7206D38B1401E2065E36CE26A9A42AB
:104060001FD040B11DE0502080F31188BFF34F8F67
:10407000BFF36F8FFEE7201DFFF744FAE06CE062AC
:10408000C0F13800A061E06AA969884200D9A8613E
:10409000064900EB800001EB8000211DFFF782FA4A
:1040A0000121084670BD0000680000205002002079
:1040B00070B5C068C46854B104F118000646FFF733
:1040C00021FA144DA86B50B13146134815E0502029
:1040D00080F31188BFF34F8FBFF36F8FFEE7201D72
:1040E000FFF710FAE06AA969884200D9A8610B4974
:1040F00000EB800001EB8000211DFFF753FAE06A1E
:104100002968C96A884202D90120686270BD00200E
:1041100070BD000068000020D8060020500200207A
:104120002DE9F0472C4D00242746A86B38B1FFF746
:1041300045FAA86B401EA863A86B40B146E050202A
:1041400080F31188BFF34F8FBFF36F8FFEE72969AC
:10415000224E0120D1B3A6F5916980463068E0B1C6
:10416000F068C46804F11800FFF7CCF9201DFFF7D0
:10417000C9F9E06AA969884200D9A86100EB800109
:1041800009EB8100211DFFF70DFAE06A2968C96A71
:104190008842E3D3C5F82480E0E70CB1FFF758F874
:1041A0002C6A4CB14FEA0806FFF7DEFE00B16E62E2
:1041B000641EF9D100202862686A38B108490127D5
:1041C00038070860BFF34F8FBFF36F8FFFF716FA02
:1041D0003846BDE8F087000068000020D8060020BF
:1041E00004ED00E010B586B0FEF7DCFD114CA068D0
:1041F000B8B100200390049005AA04A903A8FFF712
:104200009FF9DDE9032102208DE8070000230AA1C0
:104210000B48059AFFF769FEE06010B106B0012077
:1042200010BD502080F31188BFF34F8FBFF36F8F05
:10423000FEE70000A4000020546D72205376630056
:104240002D3300082DE9FF411E46134602000A9D4A
:104250004FF0000016D0144CA768002F0FD0CDE906
:1042600000130292062917DAFFF76AFE02284FF0C0
:1042700000030FD000226946A068FFF725FC04B0B8
:10428000BDE8F081502080F31188BFF34F8FBFF35A
:104290006F8FFEE72A46EEE700233246694638462E
:1042A000FFF7C2FCEBE70000A400002021F0004271
:1042B000A2F16052B2F5801F01F0004328BFD2F195
:1042C0007F6C0BD95FEA001C43EAC20242EB5070DC
:1042D00018BF704728BF20F001007047B2F5801F5B
:1042E000BCBF184670474FEA410C1CF5001F02D2B4
:1042F000084600F088BF70B500F004FB000000899C
:10430000FFF7F6BF4FF00040A0F5800070470000B7
:1043100010B591EA030F48BF83F0004300F14084D9
:10432000841A71EB030C05D2121943EB0C03001B2A
:1043300061EB0C01DFF824E14FEA1154A4EB135CAC
:104340001EEA430F18BF9EEA445F73D023EA0E03B0
:10435000DCF1200E21EA045143F4801332D322FA17
:104360000CFE10EB0E0023FA0CFE41EB0E01CCF11B
:10437000200E03FA0EFE10EB0E0051F10001B1F514
:10438000801FCCF1200E32D201EB045112FA0EF252
:10439000BDE8104058BF7047401C38BF5FEA42027A
:1043A00018BF7047002814BF20F0010041F1000140
:1043B0004FEA410313F5001F38BF7047A1F1C04118
:1043C00000F0EEBA012A43EB0302ACF1200CDCF161
:1043D0001F0E32BF4FF0000E23FA0CF310EB030058
:1043E00041EB0451B4EB115FD0D0A1EB045101F5C6
:1043F000801149085FEA300001EB04510ED350F1FF
:10440000000038BF12FA0EFE08D1BDE81040C9E71F
:10441000401C38BF5FEA4202CAD1C3E7BDE8104082
:104420004FEA410313F5001F38BF7047A1F1C041A7
:1044300000F0B6BA9EEA445F08D011EA5E0FBDE80C
:10444000104004BF01F0004100207047BDE810405B
:1044500070B500F057FA00BF64FBBE3E0000E0FFFD
:1044600002494FF0000000F052BF00BF0000F87F8B
:10447000491058BFC1F140415B1058BFC3F14043E0
:104480008B42EFF3008070472DE9C04130B4DFF874
:10449000A0C23CEA111418BF3CEA131400F0EC80EF
:1044A00081EA03051CEA111444EAD57418BF1CEA1A
:1044B000131500F0C780A4EB05044FF0004545EA52
:1044C000C12145EAC32341EA505143EA525304F162
:1044D0007F74994204F500344FEAC0204FEAC222AB
:1044E00008BF904200F09C804FEA13650FF240161F
:1044F000765D4FEA134506FB05F7C7F1807706FBAB
:1045000007F74FEAD737A7FB03687642C8F580382C
:10451000A7FB06CE38BFA8F1010807FB08E64FF05D
:10452000000EA6FB028CE6FB03CEDCF1000CCEF104
:10453000004E38BFAEF1010EA6FB0C584FF000073D
:104540004FF00005E6FB0E87A1FB08C6A0FB07CED7
:1045500016EB0E0645F10005E1FB076515F1E04E8F
:104560007EBFA4F580345FEA46066D4116F18007F0
:1045700045F100054FEA17274FEA066647EA056747
:10458000A6F1DE46B6F1805F4FEA15251FD9384601
:1045900024F0010C05EBC471BCF1FE6F01EB0C11B2
:1045A00002D8F0BCBDE8008124425CBF01F5801E4A
:1045B0009EEAC47F02D4F0BCBDE80081244238D416
:1045C000F0BCA1F1C041BDE8004100F0E9B94FEAFB
:1045D000D22242EA43524FEAD323A7FB02864FEA94
:1045E000D02040EA415007FB03661EEA0E0F4FEA57
:1045F000D12105FB026658BFA6EB0056B6EB00566C
:104600004FEA520E4EEAC37E18EB0E0E56EB530ED7
:10461000BDD518EB02085E417F1C55F10005B6E7D9
:104620004FF480154FF000074FF000064FF00008E0
:10463000ADE7F0BC4FF0000001F1C04101F00041D6
:10464000BDE8008111EA0C1F0CEA131500D00CE044
:1046500013EA0C1F00F025804FF00000F0BC81EA47
:10466000030101F00041BDE80081F0BCBDE800415C
:1046700081EA030100F094B9F0BCBDE8004170B5D7
:1046800000F040F9097EFC3E00F007B881EA030122
:104690004FF0000001F00041704781EA030100F093
:1046A0007FB9F0BCBDE800414FF0000021497047E0
:1046B000FFFDFBF9F7F5F4F2F0EEEDEBE9E8E6E4E7
:1046C000E3E1E0DEDDDBDAD8D7D5D4D3D1D0CFCD6E
:1046D000CCCBCAC8C7C6C5C4C2C1C0BFBEBDBCBBA7
:1046E000BAB9B8B7B6B5B4B3B2B1B0AFAEADACABA2
:1046F000AAA9A8A8A7A6A5A4A3A3A2A1A09F9F9E7C
:104700009D9C9C9B9A99999897979695959493932D
:10471000929191908F8F8E8E8D8C8C8B8B8A8989C4
:104720008888878786858584848383828281818047
:104730000000FF070000F87F51EA030C17D41CF5B6
:10474000801F58BFBCF5801F00F10680994218BF3A
:10475000704708BF9042704707D711F5801F58BFB8
:1047600013F5801F19D499427047894270471CF590
:10477000801F08D5BCF5801FF7D58B4218BF704746
:1047800008BF824270474FF4001C1CEB410F38BF3A
:104790001CEB430F01D28B42704770B500F0B2F8AA
:1047A000922449004FF000514FF08053FFF760BE54
:1047B000DFF848C170B51CEA111E1EBF1CEA1315B4
:1047C0009EEA0C0F95EA0C0F00F06F8081EA03045B
:1047D00023EA4C134EEAD47E21EA4C1141F48011B5
:1047E00043F48013AE44A1FB024CA0FB0365AEF181
:1047F0007F7E361955EB0C05A1FB034C4CF10003F1
:10480000A0FB021C16EB0C06654153F100030942A4
:1048100018BF46F0010613F4007F0BD14FEA0331B5
:104820004FEA0530340341EA155140EA16506FF063
:1048300003020AE04FEAC3214FEAC520F40241EA2D
:10484000555140EA56506FF0020202EB2E4201EB46
:10485000025585EACE710AD05FEA440C18BF24F0F5
:10486000004450F1000041F1000120EAD47040F210
:10487000FE7C624500D270BDA84214BF4FF0804458
:104880004FF04044002E08BF0024BEF1806FA8BF47
:10489000A1F1C041BDE8704080F282804FF000007D
:1048A00001F1C04101F0004170479EEA0C0F0CEA93
:1048B000131518BF95EA0C0F06D04FF0000081EADF
:1048C000030E0EF0004170BD00F01CF88900013E9F
:1048D00000F007B800F009B84FEA430C5FEA5C5CEF
:1048E00008D081EA030100F05BB84FEA410C5FEAAF
:1048F0005C5CF6D14FF00000014970470000FF07F3
:104900000000F87F0EF1020E2EF0030E5EF8046B2D
:10491000364205D4012A43EB030515F5001F12D8D2
:10492000012841EB010C1CF5001F0CD80ED14FEAF9
:10493000D17C15F5001F0CEB4C0C0CF1020C08BFE0
:104940004CEBD37C04E04FF0080C01E04FEAD37C41
:104950000CEB4C0526FA05F606F00706B6F1040C3A
:1049600006D20EEB860CBDE870404CF0010C60479F
:10497000DFE80CF0090B02024FF000414FF000009D
:10498000A1F5002170BD19461046012851EB010424
:1049900018BFD4F5001484BF002001F0004170BDA1
:1049A0000808A0F500114FEA3101704791EA030FA2
:1049B00010B581F000413FF5B3AC83F0004300F047
:1049C000EFB800002DE9F04101F5801CBCF5001F97
:1049D000C0F2C3804FEA115C21EA0C510CF1FD0CCE
:1049E00041F480115FEA5C0C0CF5C07C01D34000FF
:1049F00049413DA4890241EA905187028E0E0A0C7A
:104A0000A45D04FB04F602FB06F6C6F14046A4FBD7
:104A10000662F60D46EA422606FB06F4A4FB0123D5
:104A20005242C3F1404338BF5B1EA6FB0242002442
:104A3000E6FB0324D20B42EA4446A6FB0623A1FB75
:104A400002E2A3FB07E4A4184FF0000252F10002B7
:104A5000E3FB01426442C2F1404E38BFAEF1010EA9
:104A6000A6FB04234FF00002E6FB0E32A2FB034636
:104A70004FF00004B61954F10004E2FB0264A1FBFC
:104A800006E6A4FB07E816EB08064FF0000858F10D
:104A90000008E4FB01687642C8F1405838BFA8F12D
:104AA0000108A2FB06E4A3FB08E52D194FF0000462
:104AB00054F10004E2FB0854A1FB05E6A7FB04E85F
:104AC00018EB06084FF0000656F10006E1FB0486DD
:104AD00018F1200556F10006A809A8F11B08B10934
:104AE00008F03F08B8F10A0F40EA86601CD901EBD4
:104AF0000C51BDE8F08100BFFCF5EEE8E2DDD8D353
:104B0000CFCBC7C3C0BDB9B6B4B1AEACA9A7A5A33E
:104B1000A19F9D9B9A9896959392908F8D8C8B894F
:104B20008887868584838281A0FB006800FB01F270
:104B300008EB4208B8EB872807D5341858EB010476
:104B4000D5D5401C51F10001D1E7341A78EB0104AE
:104B5000CDD4401E71F10001C9E75FEA4C0C5FEA59
:104B60009C5C0DD105D34FF0000001F00041BDE881
:104B7000F081BDE8F04170B5FFF7C4FE6DDBFFBE0C
:104B8000BDE8F0414FF00000004970470000F87F99
:104B900010B591EA030F48BF83F000433FF5C0AB67
:104BA000841A71EB030C07D212198CF0004C43EB02
:104BB0000C03001B61EB0C01DFF8A4E14FEA115478
:104BC000A4EB135C1EEA430F18BF9EEA445F00F09B
:104BD000B08023EA6E03524221EA0451C3EB6E0314
:104BE00038BF5B1EDCF1200E25D322FA0CFE10EB41
:104BF0000E0043FA0CFE41EB0E01CCF1200E03FA3D
:104C00000EFE10EB0E0051F10001CCF1200E29D464
:104C100012FA0EF201EB0451BDE8104058BF704784
:104C2000401C1CBFB2F1004F704700280CBF491C4C
:104C300020F00100704712EB020E43EB030218BF95
:104C40004FF0010E4EEA4202ACF1200CDCF11E0ED8
:104C500054D943FA0CFE10EB0E0051F1FF31CCF1A8
:104C60001E0ED5D50EF1010E12FA0EFE404141EB9B
:104C7000010101EB445C5FEA5C5C10D910EBDE7073
:104C800001EB045138BFBEF1004FBDE8104018BF22
:104C9000704700280CBF491C20F00100704730D23B
:104CA0004FEAD42C11F5001124F400641BD0B1FAA2
:104CB00081F20B3AA41AA41ED2F12003914030FADB
:104CC00003F31943904001EBCC71002C01EB04512C
:104CD000BDE81040A8BF704701F1C0414FF000008F
:104CE00001F000417047B0FA80F310FA03F100D1EF
:104CF00010BDE41A173C4805C90AE4E701EB04516A
:104D000010BD491001EB0451BDE810404FEA3000DE
:104D100002E04FF0000170474A0008BF0042F8D09F
:104D2000B2F5001F28BF704701F000414FF00000AE
:104D300070479EEA445F07D011EA5E0FBDE810405D
:104D400004BF002100207047BDE8104070B5FFF798
:104D5000D9FD00BF40DFF63E83F0004110467047AA
:104D60000000E0FF43004FEAD30C4FEA3C0C434005
:104D70001FBF40070CF1605113F0FE4F70471CF04D
:104D8000006F03D100200CF0004170470CF000438D
:104D900043EA507010B540EACC0000F0EEF900BFD5
:104DA000000000924FEA0001FFF7FABD4FF000410A
:104DB0004FF00000A1F500217047000090EA010FBC
:104DC00048BF81F0004100F13482421A3CBF801A92
:104DD00089184FEAD0524FF07F4C1CEA410FA2EBEA
:104DE000D15318BF9CEA026F00F03B804FF0004C9B
:104DF0004CEA00204CEA012121FA03FC10EB0C0CD8
:104E00001ED202F1FF325FEA1C2040EBC25038BFD5
:104E100070471CF07F0F4FEA400C18BFBCF17F4F6A
:104E200038BF7047C3F12003994008BF20F001004C
:104E3000BCF17F4F38BF7047A0F1C04000F0E3B92C
:104E40004FEA3C00000A40EBC25028BF1CF0FF0FA5
:104E50004FEA400CE6D018BFBCF17F4F38BF704717
:104E6000EAE79CEA026F05D010EA5C0F08BF00F089
:104E70000040704710B500F080F900BF64FBBE3EF3
:104E8000014800F044BA00BF0000C07F4FF47F0C1F
:104E90001CEAD0121EBF1CEAD11392EA0C0F93EA4F
:104EA0000C0F00F0858090EA010F48BF42F4807239
:104EB00040F4000C41F400002CF07F4120F07F40D2
:104EC00000B58142A2EB03020FF2081CACEB504E7E
:104ED000C0F100009EF800E04FEA4E0E00FB0EFC11
:104EE00038BF49004FEA2C1C02F5FA020CFB0EF306
:104EF0004FEACE1E4FEA112C4FEAC1210EEB635E42
:104F000042EB22420EFB0CFC4FEA1C5300FB031148
:104F10004FEA112C4FEA01310EFB0CFC4FEADC4C3E
:104F200000FB0C11C14228BF09184CEB03335DF89C
:104F300004EB10EB410143EBC250B2F57C0F38BFDC
:104F4000704729D512F0F00F1CBF00F1C04000F0EF
:104F500000407047008182838485868788898B8C96
:104F60008D8E8F919293959697999A9C9D9FA0A2D2
:104F7000A3A5A7A8AAACAEB0B2B3B5B7B9BCBEC022
:104F8000C2C5C7C9CCCED1D4D7D9DCDFE2E6E9ECC3
:104F9000F0F3F7FAFE0000004FEA400C0CF1807CC1
:104FA000BCF17E4F28BF7047B0F1C04000F02BB974
:104FB00090EA010F0CEAD11348BF42F480726245B7
:104FC00038BF634507D213F47F0F16D080EA010083
:104FD00000F00040704710B500F0CFF8097EFC3EAD
:104FE00000F005B880EA010000F00040704780EA58
:104FF000010000F0004000F006B912F47F0F04BF7A
:105000000248704780EA010000F0FDB80000C07F50
:1050100041000B0ED3F19E0208D950F400034FEA71
:10502000032323FA02F048BF4042704710B500F056
:10503000A4F800BF49922480002070476FF000421E
:1050400082EA20007047000010F0004148BF404253
:10505000B0FA80F310FA03F2C3F19D030BD051EACA
:10506000C35101EB1220530638BF704700F1010015
:1050700008BF20F0010070474FF47F0C1CEAD012EB
:105080001EBF1CEAD11392EA0C0F93EA0C0F00F03A
:10509000478090EA010F48BF42F480724FF0004C05
:1050A0004CEA00204CEA012102EB0302A0FB0113B1
:1050B000A2F50002002918BF43F001035B0028BFDE
:1050C0004FEA330342EB22425FEA132C4CEBC2500F
:1050D0002EBFBCEB436FB2F57C0F70474FEA036CF9
:1050E000BCF1004F08BF20F00100B2F57C0F38BFC3
:1050F00070470BD582F0FF0212F5803FC8BF7047A2
:1051000000F1C040D8BF00F00040704700F5000C2F
:105110005FEA4C0C48BF7047B0F1C04000F073B874
:1051200090EA010F0CEAD11348BF42F48072624545
:1051300038BF634504D280EA010000F000407047A8
:1051400010B500F01AF800BF8900013E00F007B862
:1051500000F009B85FEA410C5FEA1C6C08D080EAF5
:10516000010000F050B85FEA400C5FEA1C6CF6D119
:105170004FF00040A0F5800070470EF1020E2EF0B7
:10518000030E5EF8044B244204D44FEA4102B2F10C
:105190007F4F11D84FEA4003B3F17F4F0CD80ED1A7
:1051A0004FEAD07CB2F17F4F0CEB4C0C0CF1020CAF
:1051B00008BF4CEBD17C04E04FF0080C01E04FEA53
:1051C000D17C0CEB4C0324FA03F404F00704B4F193
:1051D000040C06D20EEB840CBDE810404CF0010C20
:1051E0006047DFE80CF0070802024FF00040A0F52E
:1051F000800010BD0846420018BFD2F1807288BFFF
:1052000000F0004010BDFF2141EAD050C0057047BA
:1052100080F0004090EA010F7FF5D7AD81F00041AA
:1052200000F007B890EA010F48BF81F000413FF558
:10523000CCAD421A04D882F00042A0EB0200114427
:105240004FEAD0524FF07F4C1CEA410FA2EBD153F2
:1052500018BF9CEA026F4AD04FF0004C4CEA002085
:105260004CEA012121FA03FCB0EB0C0C0FD412F034
:10527000FE0F36D05FEA4C001DD5001240EBC25045
:1052800038BF70471CF03F0F18BF70470BE0A2F10A
:1052900001025FEA1C2040EBC25038BF70471CF08F
:1052A0007F0F18BF7047C3F12003994014BF401E01
:1052B00020F00100704780084FEA122308BF7047B2
:1052C000B0FA80FCA2EB0C02CCF1280C60FA0CF0D6
:1052D00093EA122F04BF00EBC25070474FEAC3702D
:1052E0007047130A5FEADC1008BF7047F6E79CEAD4
:1052F000026F04D010EA5C0F08BF0020704710B5A1
:10530000FFF73BFF40DFF63E81F0004070470CF0B6
:105310000F03092B08BF082000F07F800A2B0BD059
:10532000082B18BF704708BF1CF0400F0AD04FF081
:1053300000004FF0000170471CF0400F18BF4FF005
:10534000004070471CF0100F08D020F0704300F0B0
:105350007F4242EAD3014FEA4370704700F0604059
:1053600021F07F4242EA000201F07F4040EA727081
:1053700070474FF0FF0C4CF4E06C1CEA11531CBF5B
:105380009CEA030C9445C2BFDA4201EB025170471C
:10539000002B0DD0BCF1000F0FD0002A01F000410E
:1053A000A4BF41F0E04141F07F614FF00000704741
:1053B00001F000414FF00000704750EA01334FF018
:1053C0009B0C18BF4CF0806C7FF44AA870474FF0DC
:1053D000FF0212EAD0521CBF92F0FF038B42C2BF01
:1053E000D14200EBC1507047002A0AD0002B0BD0ED
:1053F000002900F00040A4BF40F0FE4040F400004F
:10540000704700F00040704743024FF00B0C18BF8C
:105410004CF0806C7FF434AD70471CF4801F11D0C9
:105420001CF4E02F03D06FEACC31490070474FF0F5
:105430004050EFF3008222F0704242EA000282F311
:10544000008870474FF0000070470000E8550008E2
:10545000000000000000000000000000000000004C
:105460000002000018000000000000000000000022
:10547000D8550008000000000000000000000000F7
:105480000000000000020000080000000000000012
:1054900000000000DC5500080000000000000000D3
:1054A00000000000000000000002000008000000F2
:1054B00000000000000000000102020304050607CE
:1054C00008090A0B0C0D0E0F101000000000000060
:1054D00000000102030406070809000000000102A1
:1054E0000304000000000000555555555555C53FB3
:1054F0007D6FEB0312D6D4BF5544880E55C1C93F0A
:105500003B8F68B52882A4BF88B20175E0EF493FA0
:1055100009F7FD0DE13D023F4B2D8A1C273A03C0E0
:10552000C88A599CE52A004059018D1B6C06E6BFCC
:1055300082922EB1C5B8B33F4FBB610567ACDD3F6A
:10554000182D4454FB21E93F9BF681D20B73EF3FAA
:10555000182D4454FB21F93FE2652F227F2B7A3C22
:10556000075C143326A6813CBDCBF07A8807703CDB
:10557000075C143326A6913CC4EB98999999C9BF4E
:10558000711623FEC671BCBF6D9A74AFF2B0B3BF83
:105590009AFDDE522DDEADBF2F6C6A2C44B4A2BF43
:1055A0000D5555555555D53FFF8300922449C23FAF
:1055B0006E204CC5CD45B73F513DD0A0660DB13FE3
:1055C000EB0D76244B7BA93F11DA22E33AAD903FF5
:1055D0000000000000000000504944005265616472
:1055E0005F4D50550000000064656661756C745431
:1055F00061736B001456000800000020E0000000FA
:105600006C010008F4560008E0000020682000004B
:1056100088010008000000000000000000000000F9
:105620000100000010000000000000000024F40051
:10563000000000000000000000000000000000006A
:10564000000000000000000000000000000000005A
:105650000000000000000000000020416666864057
:105660000000803F0000000000000000000000007B
:10567000000000000000000000000000000000002A
:10568000000000000000000000000000000000001A
:10569000000000000000000000000000000000000A
:1056A00000000000000000000000000000000000FA
:1056B00000000000000000000000000000000000EA
:1056C00000000000000000000000000000000000DA
:1056D00000000000000000000000000000000000CA
:1056E000000000000000000000000000AAAAAAAA12
:0456F00000000000B6
:0400000508000131BD
:00000001FF
